:100000000C94DB000C9410190C94E9180C94C21891
:100010000C949B180C9403010C9403010C94741819
:100020000C9403010C9403010C9431150C94A0154D
:100030000C9403010C9403010C9403010C94030130
:100040000C9403010C9403010C9403010C94030120
:100050000C9403010C9403010C9403010C942A18D2
:100060000C9403010C94F8170C94D2170C94030110
:100070000C9403010C9403010C9403010C940301F0
:100080000C9403010C9403010C9403010C940301E0
:100090000C9403010C9403010C9403010C940301D0
:1000A0000C9403010C9403010C9403010000000064
:1000B000240027002A002D00300072756E2D627218
:1000C000696467650A000A000A0007060504010062
:1000D000080A0B0C0D09080B0002020201000904BA
:1000E00000000102020000052400100105240101A6
:1000F00001042402060524060001070581031000FF
:100100004009040100020A00000007050202400045
:1001100000070583024000000403090412010002E5
:10012000EF020140412341800001010203014172BD
:100130006475696E6F204C4C430041726475696E42
:100140006F2059756E0000000000250028002B006C
:100150002E00310004040404040304050202020218
:100160000403020202020606060606060404020250
:100170000204040408020110408040102040804026
:1001800080080204018040201002011080102040ED
:1001900040200000000200090F0000030401000CD1
:1001A000000000000000000000000000000000004F
:1001B00000003719B61E11241FBECFEFDAE0DEBFF4
:1001C000CDBF23E0AAEEB1E001C01D92AE3FB20761
:1001D000E1F711E0A0E0B1E0E2EAF7E402C0059047
:1001E0000D92AA3EB107D9F710E0CAEDD0E004C0E5
:1001F0002197FE010E94B221C93DD107C9F70E9493
:10020000351A0C94C4230C940000AF92BF92CF9285
:10021000DF92EF92FF920F931F93CF93DF9300D063
:10022000CDB7DEB75C01D12CC12CCA14DB04A0F021
:10023000409173035091740360917503709176033C
:10024000E0918E03F0918F0380918A0390918B034C
:10025000099590E080E030C0E0919003F091910327
:1002600080918C0390918D0309957B018C011E1464
:100270001F0410061106F4F41A82198260917C039F
:1002800070917D036C0D7D1DE0918803F0918903D1
:100290009E012F5F3F4FA5014C195D09809184039A
:1002A000909185030995009739F489819A81C80E48
:1002B000D91EBBCF8CEF9FEF0F900F90DF91CF91A6
:1002C0001F910F91FF90EF90DF90CF90BF90AF9074
:1002D00008958F929F92AF92BF92CF92DF92EF924A
:1002E000FF920F931F93CF93DF9300D0CDB7DEB76C
:1002F0009C01260F371F40917A0350917B034217D0
:10030000530708F44CC05B014C01D12CC12CCA141A
:10031000DB0418F090E080E033C0E0919003F091AE
:10032000910380918C0390918D0309957B018C0141
:100330001E141F04100611060CF51A821982609112
:100340007E0370917F03C4018C0D9D1D680F791F82
:10035000E0918603F09187039E012F5F3F4FA50137
:100360004C195D098091840390918503099500974C
:1003700039F489819A81C80ED91EC9CF8CEF9FEFBD
:100380000F900F90DF91CF911F910F91FF90EF9001
:10039000DF90CF90BF90AF909F908F9008958FEF98
:1003A0009FEFEECF109292038091550390915603E8
:1003B000DC01ED91FC910488F589E02D0994809190
:1003C000550390915603009711F480E00895DC01E5
:1003D000ED91FC910688F789E02D09958130A9F708
:1003E000809192030895EFE9F1E02491E0E8F1E0D3
:1003F0003491E1E6F1E09491992309F430C022238D
:10040000E9F021502F30D0F4E22FF0E0E65FFD4F0D
:100410000C94B22138023C021902300234021E024E
:100420001E021E023F02450249024D0253021E02F5
:100430005702209180002F7720938000E92FF0E071
:10044000EE0FFF1FEA5BFE4FA591B4919FB7F894A2
:10045000EC91811132C030953E233C939FBF0895AB
:10046000209180002F7DE8CF20918000277FE4CF6E
:1004700024B52F7724BDE2CF24B52F7DFBCF20916B
:1004800090002F7720939000D9CF209190002F7D5E
:10049000F9CF20919000277FF5CF2091C0002F77D2
:1004A0002093C000CBCF2091C0002F7DF9CF2091A9
:1004B000C200277F2093C200C1CF3E2BCECFFC01CC
:1004C00080913E02882311F13FB7F89482E0809337
:1004D000E9002091F200822F90E01816190614F41A
:1004E00081E090E0882339F0289844E640933D026B
:1004F0004091F1004083222339F02091F200211134
:1005000003C02BE62093E8003FBF08958FEF9FEFD5
:1005100008952FB7F89483E08093E9009091E80064
:10052000892F807295FF04C09091F20080E4891BAE
:100530002FBF08958091350281110DC082E0809314
:10054000310284E08093320210923402109233021E
:1005500081E08093350281E392E00895CF93DF93A9
:100560001F92CDB7DEB76983DC01ED91FC9102806B
:10057000F381E02D41E050E0BE016F5F7F4F0995B0
:100580000F90DF91CF91089583E08093E9008091EF
:10059000F200882319F08AE38093E80008950E940E
:1005A000890290E00895CF93DF931F92CDB7DEB715
:1005B000FC018485958597FD08C02FEF3FEF3587B7
:1005C00024870F90DF91CF910895CE0101960E946C
:1005D0005F02019719F4898190E0F3CF8FEF9FEFCD
:1005E000F0CF0F931F93CF93DF931F92CDB7DEB75A
:1005F0008C01FC018485958597FF0BC0CE01019687
:100600000E945F02019771F4898190E0F80195875B
:100610008487F801848595850F90DF91CF911F9194
:100620000F9108958FEF9FEFF1CFFC0184859585A1
:1006300097FD0BC09FB7F89482E08093E90080910A
:10064000F2009FBF90E0019608959FB7F89482E072
:100650008093E9008091F2009FBF90E0089540915F
:100660002B0250912C022091290230912A0242172C
:100670005307B4F49091E8009570E1F39091E8008D
:1006800092FD19C08093F10080912B0290912C0271
:1006900001968F739927892B19F48EEF8093E800C8
:1006A00080912B0290912C02019690932C028093C2
:1006B0002B0281E0089580E00895EF92FF920F935E
:1006C0001F93CF93DF93F82E192FE62E042F81E08E
:1006D000860F880F0E942F0383E00E942F03CF2DE7
:1006E000D12FEC0EFD2EF11CCE15DF05B9F007FF62
:1006F00013C0FE0184910E942F03182F80E00E94F6
:100700002F03812321968111EFCFDF91CF911F918C
:100710000F91FF90EF9008958881EDCF81E0F5CFA4
:10072000DF92EF92FF920F931F93CF93DF93D82E18
:100730008A01EB017B01E40EF51ECE15DF0559F0B1
:10074000D7FE12C0FE0184910E942F0321968111D1
:10075000F4CF0FEF1FEFC801DF91CF911F910F91E1
:10076000FF90EF90DF9008958881EECF0F931F9355
:10077000CF93DF931F92CDB7DEB782E0898342E447
:1007800050E066ED70E080E80E9490030E949A02BB
:10079000DC0112960D911C910115110589F0D8010B
:1007A000ED91FC910280F381E02DBE016F5F7F4FE0
:1007B000C801099597FD04C0F80100851185ECCFAB
:1007C00089810F90DF91CF911F910F910895615012
:1007D00030F02091F100FC0120830196F8CF289899
:1007E00084E680933D020895CF93DF93E901DC0115
:1007F0008D919C91DC01ED91FC910280F381E02DC3
:10080000099599838883892B29F090E080E0DF9116
:10081000CF9108958AEF9FEFFACF0895EF92FF925C
:100820000F931F93CF93DF938C017B01D0E0C0E047
:10083000F701EC0FFD1F6491662361F0D801ED9183
:10084000FC910190F081E02DC8010995892B11F0F0
:100850002196EECFCE01DF91CF911F910F91FF90A6
:10086000EF900895AF92BF92CF92DF92EF92FF92F6
:100870000F931F93CF93DF936C017B018B01040FC8
:10088000151FEB015E01AE18BF08C017D10759F064
:100890006991D601ED91FC910190F081E02DC601A6
:1008A0000995892B79F7C501DF91CF911F910F91A0
:1008B000FF90EF90DF90CF90BF90AF900895FC0134
:1008C000538D448D252F30E0842F90E0821B930BB5
:1008D000541710F0CF96089501970895FC01918D5B
:1008E000828D981761F0A28DAE0FBF2FB11D5D965E
:1008F0008C91928D9F5F9F73928F90E008958FEF00
:100900009FEF0895FC01918D828D981731F0828DB3
:10091000E80FF11D858D90E008958FEF9FEF08950A
:10092000FC01918D228D892F90E0805C9F4F821B6E
:1009300091098F73992708958BE992E00E949004A2
:1009400021E0892B09F420E0822F089580E090E0D7
:10095000892B29F00E949C0481110C9400000895B9
:10096000FC01A48DA80FB92FB11DA35ABF4F2C9124
:10097000848D90E001968F739927848FA689B7891B
:100980002C93A089B1898C9182748C93938D848DE2
:10099000981306C00288F389E02D80818F7D8083C3
:1009A0000895EF92FF920F931F93CF93DF93EC0183
:1009B00081E0888F9B8D8C8D981319C0E889F98907
:1009C000808185FF14C09FB7F894EE89FF8960830A
:1009D000E889F9898081827480839FBF81E090E0FB
:1009E000DF91CF911F910F91FF90EF900895F62E18
:1009F0000B8D10E00F5F1F4F0F731127E02E8C8DB2
:100A00008E110CC00FB607FCFACFE889F9898081F6
:100A100085FFF5CFCE010E94B004F1CFEB8DEC0F36
:100A2000FD2FF11DE35AFF4FF0829FB7F8940B8F13
:100A3000EA89FB8980818062CFCFCF93DF93EC017D
:100A4000888D8823B9F0AA89BB89E889F9898C91B6
:100A500085FD03C0808186FD0DC00FB607FCF7CF72
:100A60008C9185FFF2CF808185FFEDCFCE010E9472
:100A7000B004E9CFDF91CF9108953FB7F89480910A
:100A8000F1019091F201A091F301B091F40126B52A
:100A9000A89B05C02F3F19F00196A11DB11D3FBFB6
:100AA000BA2FA92F982F8827BC01CD01620F711D85
:100AB000811D911D42E0660F771F881F991F4A957F
:100AC000D1F708958F929F92AF92BF92CF92DF920B
:100AD000EF92FF924B015C010E943D056B017C018E
:100AE0000E943D056C197D098E099F09683E73407F
:100AF00081059105A8F321E0821A9108A108B108A7
:100B000088EEC80E83E0D81EE11CF11C811491040C
:100B1000A104B10429F7FF90EF90DF90CF90BF9030
:100B2000AF909F908F9008958F929F92AF92BF92B7
:100B3000CF92DF92EF92FF920F931F93CF93DF93A9
:100B40006C017B018A0180911501882309F45CC046
:100B500080913E02882309F457C08091300280FFC3
:100B600005C08091E00082608093E000E801B12C34
:100B70008AEFA82E93E0892E2AE3922E209711F473
:100B8000BB20D9F10E94890281110AC0AA94AA202F
:100B9000D9F161E070E080E090E00E946205EECF64
:100BA0008C171D0611F00CF08C2F9FB7F8948092D3
:100BB000E9002091E80025FD02C09FBFDFCF282F6C
:100BC00030E0C21BD30BF701815020F041914093DC
:100BD000F100FACFE20EF31EBB2021F09092E80064
:100BE000B12CEBCF8091E80085FDE7CF9092E80033
:100BF000BB24B394209709F3F3CF5D9884E68093E8
:100C00002F02101611063CF081E090E0F60193836C
:100C1000828310E000E0C801DF91CF911F910F9116
:100C2000FF90EF90DF90CF90BF90AF909F908F900C
:100C300008952FB7F8946091ED017091EE018091C5
:100C4000EF019091F0012FBF0895CF92DF92EF92C4
:100C5000FF92C0904403D0904503E0904603F0908B
:100C60004703C0924003D0924103E0924203F092C6
:100C700043030E94190660934403709345038093D5
:100C8000460390934703AB01BC014C195D096E0903
:100C90007F098091EA019091EB01FC01EE0FFF1FAB
:100CA000EE0FFF1FE350FE4F408351836283738337
:100CB0004093F7015093F8016093F9017093FA01A2
:100CC00001968A30910594F49093EB018093EA01A8
:100CD000809125029091260201969093260280939E
:100CE0002502FF90EF90DF90CF9008951092EB01D6
:100CF0001092EA01EDCFCF92DF92EF92FF92CF9365
:100D0000DF93EC016A017B01EC81FD81309781F07A
:100D10000995C60ED71EE81EF91EC882D982EA823E
:100D2000FB82DF91CF91FF90EF90DF90CF900895FD
:100D30000E941906EECFCF92DF92EF92FF92DC0174
:100D40001496ED91FC911597CD90DD90ED90FC906F
:100D5000309771F00995A7019601261B370B480BB8
:100D6000590BCA01B901FF90EF90DF90CF90089521
:100D70000E941906F0CF08950F931F93CF93DF932E
:100D8000EC01B0E0A0E0E881F9818D010F5F1F4F19
:100D9000CB018E1B9F0B8017910758F1822F8F7705
:100DA00097E056954795379527959A95D1F7211550
:100DB00031054105510509F08068EA0FFB1F80836A
:100DC000211531054105510569F488819981800F0C
:100DD000911F9983888390E080E0DF91CF911F91EC
:100DE0000F910895D8010430110569F68EEF9FEF39
:100DF000F4CF8FEF9FEFF1CF4F925F926F927F9280
:100E00009F92AF92BF92CF92DF92EF92FF920F9399
:100E10001F93CF93DF936C018A01DA011D921D921B
:100E20001D921C921397DC01ED91FC917B01EE1A4F
:100E3000FF0A5F01D0E0C0E0412C512C3201439405
:100E40002196EC16FD06E0F1C530D105E1F1D501A2
:100E50009D905D01A92DAF77B0E0A30192010E94A2
:100E60000620D8012D913D914D915C911397260F4D
:100E7000371F481F591F2D933D934D935C93139734
:100E800087E0440C551C661C771C8A95D1F797FCAB
:100E9000D7CFEC0FFD1FD601ED93FC9390E080E0DF
:100EA000DF91CF911F910F91FF90EF90DF90CF9046
:100EB000BF90AF909F907F906F905F904F900895FC
:100EC0008FEF9FEFEDCF8EEF9FEFEACFEF92FF9284
:100ED0000F931F93CF93DF9300D000D000D0CDB7F6
:100EE000DEB7D9017C01E60EF71E8E159F0589F14C
:100EF000FC013191FE83ED83832F807F90E064E0DD
:100F0000959587956A95E1F784179507E1F533FB89
:100F1000332730F93C93AE014F5F5F4FB701CE01ED
:100F200005960E94FC06009709F549815A816B815C
:100F30007C81423051056105710541F5ED81FE81ED
:100F4000EE1AFF0A22E0E216F10430F4F8011182F1
:100F500010828FEF9FEF0AC0208130E0322F2227CE
:100F60004181240F311DF8013183208326960FB66D
:100F7000F894DEBF0FBECDBFDF91CF911F910F91CF
:100F8000FF90EF90089587EF9FEFF0CF88EF9FEFEE
:100F9000EDCFFC01A081B1816A1B7B0B6230710532
:100FA00068F05C93A081B18111964C93808191810E
:100FB00002969183808390E080E008958FEF9FEF09
:100FC0000895AF92BF92CF92DF92EF92FF920F936C
:100FD0001F93CF93DF9300D0CDB7DEB77C01E60E31
:100FE000F71EE1E0F0E02630310511F0F0E0E0E03E
:100FF000EE0FFF1F74E0220F331F7A95E1F7E22B0B
:10100000E816F90669F16A015C01DC01ED93BA8327
:10101000A98322E030E040E050E0B701CE01019624
:101020000E94BC06009779F4A801B701CE01019691
:101030000E94C907009739F429813A812A193B098E
:10104000F601318320830F900F90DF91CF911F9194
:101050000F91FF90EF90DF90CF90BF90AF900895E9
:101060008FEF9FEFF0CF2F923F924F925F926F9250
:101070007F928F929F92AF92BF92CF92DF92EF9228
:10108000FF920F931F93CF93DF93CDB7DEB7659792
:101090000FB6F894DEBF0FBECDBF1C013B012A0185
:1010A0001F861E86D1011D921C9261E070E090E0C7
:1010B00080E00E9469018C3FBFEF9B0709F47FC06D
:1010C000009709F04CC0E0917E03F0917F03D101BD
:1010D00011961C921E928081807F90E074E095951D
:1010E00087957A95E1F78D939C938930910579F0F6
:1010F0004CF40297069758F0F1011182108287EFA5
:101100009FEF2DC08B30910511F00D97A9F7198233
:101110001A821B821C8210E000E04801FFEF8F1A48
:101120009F0A61E070E0C4010E9469010097B9F470
:1011300060917E0370917F036F5F7F4F798768872F
:10114000680D791DAE014F5F5F4FCE0108960E947A
:10115000FC068E3F2FEF9207D9F489EF9FEF65963B
:101160000FB6F894DEBF0FBECDBFDF91CF911F91B8
:101170000F91FF90EF90DF90CF90BF90AF909F9036
:101180008F907F906F905F904F903F902F90089539
:10119000009781F569817A818B819C816115710548
:1011A0008105910589F589819A8101964E855F8532
:1011B000840F951FDC01A80DB91DBF87AE87F10113
:1011C00080819181009709F466C18530910509F409
:1011D00010C108F5039741F14114510409F453C1BA
:1011E000D1018D919C914816590609F057C190E0A4
:1011F00080E0B5CF19821A821B821C8284018F3F46
:10120000980709F48ACFABCFC80102960E94690102
:10121000009749F2A4CF8630910509F416C10D97C5
:10122000D9F610927703D8CF00917A0310917B03FF
:10123000E0917E03F0917F03FD87EC870E0F1F1F67
:10124000E017F10709F424C18191FD87EC87982FFD
:10125000907F903309F053CF982F91709B838670C5
:1012600090E09595879588248394912C813039F06E
:10127000912C812C823019F452E0852E912CAE01F4
:10128000485F5F4FB801CE010C960E94FC060097A4
:1012900009F065CFC884D984EA84FB84F2E0CF16D4
:1012A000D104E104F10408F4A1C0EC85FD850E1B16
:1012B0001F0B012E000C220B330B0C151D052E05E8
:1012C0003F0508F4E5C022E0C216D10408F4E0C0EE
:1012D000808190E0982F88272181820F911D9F01A6
:1012E0002E5F3F4F3D872C87009709F06BC01B8A0C
:1012F0001A8AEC0DFD1D998B888B8114910409F4D9
:101300006FC0AC85BD85CF018A1B9B0B029708F48B
:10131000BFC08C9190E0982F882711962C9111973F
:10132000AC01420F511D5D8B4C8B1296BD87AC8773
:101330008C859D85E81BF90BFF83EE83EF2B09F06D
:1013400052C01D821C82E0918003F091810330978E
:10135000A1F06091820370918303A82C9A82898204
:10136000BA80CB80DC80ED80FE800F8128893989AE
:101370004A895B8981E793E009958114910409F416
:101380002BCF24E030E08A94892811F025E030E06A
:1013900060917803709179030C891D89AE01485FD3
:1013A0005F4F80917C0390917D030E94E10700973D
:1013B00009F0D5CE888599850E940501009709F42A
:1013C0000BCFCDCEA601425051094817590708F45A
:1013D0005FC03B8B2A8B280F391F3D872C8789CF15
:1013E0001D8A1C8AA5CF9D838C83ADCF88EF9FEF8C
:1013F000B6CE60917A0370917B038E01085F1F4F18
:101400009E01245F3F4F45E050E080917E03909124
:101410007F030E946607009709F0A1CE0885198511
:10142000609178037091790326E030E0AE014F5F60
:101430005F4F80917C0390917D030E94E1070097AC
:1014400009F08DCE89819A81B7CF60917A0370912E
:101450007B038E01085F1F4F9E01245F3F4F46E0D4
:1014600050E080917E0390917F030E946607009771
:1014700009F075CE0885198560917803709179031C
:1014800027E030E0D3CF6114710409F0A9CEAFCECC
:101490008FEF9FEF64CE41145104A9F3E0919003C4
:1014A000F091910380918C0390918D03099516160C
:1014B0001706180619060CF09ACE6114710409F487
:1014C000F1CDEE85FF85E615F70508F4EBCD8FCE5F
:1014D0004F925F926F927F928F929F92AF92BF9244
:1014E000CF92DF92EF92FF920F931F93CF93DF93F0
:1014F0006B015901FC01C081D181EC82FD820E8318
:101500001F837B01E40EF51E8B0148018C189D089A
:101510000E151F0511F10E941906688779878A87C1
:101520009B87E881F9810284F385E02DCE0109953E
:1015300097FF2DC00E941906488459846A847B84D1
:1015400064197509860997094C805D806E807F80DB
:10155000641575058605970520F3F5019182808253
:1015600090E080E0892811F48BEF9FEFDF91CF911D
:101570001F910F91FF90EF90DF90CF90BF90AF90B1
:101580009F908F907F906F905F904F900895F8019B
:1015900081938F01BACF0895FB012785FC0127872E
:1015A000FB012685FC0126870895FC0187850895A7
:1015B00090E080E00895CF93DF93EC018D819E81D0
:1015C000DC01ED91FC910084F185E02D0995181660
:1015D000190654F48D819E81DC01ED91FC91028409
:1015E000F385E02D0995EACFDF91CF9108958F9291
:1015F0009F92AF92BF92CF92DF92EF92FF92CF93E2
:10160000DF93EC016B010E9419064B015C01F12C88
:10161000E12C8D819E81DC01ED91FC910284F385AA
:10162000E02D099597FF0DC00E94190668197909E8
:101630008A099B096C157D058E059F0550F38FEF78
:101640009FEFDF91CF91FF90EF90DF90CF90BF9011
:10165000AF909F908F900895FC01238134812627BD
:10166000022E2295207F2025032E322F22952F70C7
:101670000226269532272327220F220F220F20250C
:101680003483238308952F923F924F925F926F92FB
:101690007F928F929F92AF92BF92CF92DF92EF9202
:1016A000FF920F931F93CF93DF93CDB7DEB72A97A7
:1016B0000FB6F894DEBF0FBECDBF9A8789875B0156
:1016C000290137011A01200E311E3A82198288241D
:1016D0008A94982C9A01260F371F3E832D83C801C8
:1016E000840D951D98878F83A985BA8518968C914E
:1016F000B981B81708F040C1E985FA8594828382E0
:1017000085819681DC01ED91FC910190F081E02DC5
:101710006FEF09956FEF89859A850E942C0BE985FB
:10172000FA8585819681DC01ED91FC910190F08133
:10173000E02DA985BA856C910995E985FA856081C6
:10174000CF010E942C0BA985BA8515968D919C918D
:10175000DC01ED91FC910190F081E02D6A81099509
:101760006A8189859A850E942C0BE985FA85858195
:101770009681DC01ED91FC910190F081E02D622DCC
:101780000995622D89859A850E942C0B8501E98532
:10179000FA8585819681D8016D918D01DC01ED91ED
:1017A000FC910190F081E02D0995F801319760815D
:1017B00089859A850E942C0BED81FE810E171F07EB
:1017C00031F78201A985BA8515968D919C91DC012E
:1017D000ED91FC910190F081E02D2F81388520174B
:1017E000310761F0D8016D918D010995F8013197AC
:1017F000608189859A850E942C0BE4CFA985BA85E2
:1018000014966C910995E985FA8585819681DC01AC
:10181000ED91FC910190F081E02DA985BA85139698
:101820006C91099568EC70E089859A850E94F70AA9
:101830008F3F910509F092C0E985FA8594828382F1
:101840006FEFCF010E942C0B65E070E089859A85CF
:101850000E94F70AA985BA856C916817190609F0E4
:101860007DC0CD010E942C0B6AE070E089859A85CD
:101870000E94F70A7C0197FD71C0682F89859A85BF
:101880000E942C0B6AE070E089859A850E94F70A15
:101890008C0197FD63C0682F89859A850E942C0B67
:1018A000EC821B82EB81FC810E0F1F1FF12CE12CBF
:1018B00065E070E089859A850E151F05A1F0EC148E
:1018C000FD0489F00E94F70A97FD09C0F301EE0DAF
:1018D000FF1D8083682F89859A850E942C0BFFEF5E
:1018E000EF1AFF0AE5CF0E94F70A7C0197FD36C088
:1018F00065E070E089859A850E94F70A97FD2EC001
:10190000FE2CEE248E0D9F1DA985BA8513962D9170
:101910003C9114978217930709F58C918F5F8C93F4
:10192000C801C016D10608F4C6012A960FB6F8946D
:10193000DEBF0FBECDBFDF91CF911F910F91FF9002
:10194000EF90DF90CF90BF90AF909F908F907F905F
:101950006F905F904F903F902F900895B981BF5F37
:10196000B98364E670E080E090E00E9462058985BA
:101970009A850E94DB0AB8CE8FEF9FEFD6CFAF9249
:10198000BF92CF92DF92EF92FF920F931F93CF936C
:10199000DF9300D0CDB7DEB7FC019B015A018785EC
:1019A000882301F18CE6898386858A83D12CC12C1A
:1019B000F12CE12C8A0142E050E0BE016F5F7F4FC5
:1019C000848595850E94430BC5010F900F90DF9190
:1019D000CF911F910F91FF90EF90DF90CF90BF902C
:1019E000AF900895B12CA12CEFCFCF92DF92EF9260
:1019F000FF920F931F936801790110E000E030E03F
:101A000020E00E94430B1F910F91FF90EF90DF9019
:101A1000CF900895EF92FF920F931F93CF93DF9390
:101A200000D01F92CDB7DEB7DC011F962C911F9717
:101A3000222301F17C01ED91FC910084F185E02DE0
:101A40000995892B11F58CE48983F70186858A83B2
:101A500001E010E09E012D5F3F4F42E050E0BE01EB
:101A60006F5F7F4F848595850E94F50C81E09B8197
:101A7000913009F080E00F900F900F90DF91CF919F
:101A80001F910F91FF90EF90089581E0F4CFEF92B6
:101A9000FF920F931F93CF93DF9300D01F92CDB788
:101AA000DEB7FC012089211118C07C01118A8BE46A
:101AB000898380E48B8386858A839F012E5E3F4FD6
:101AC00000E410E043E050E0BE016F5F7F4F84858B
:101AD00095850E94F50CF701808B0F900F900F9069
:101AE000DF91CF911F910F91FF90EF900895CF93C9
:101AF000DF93EC010E94470D8889882341F0898992
:101B0000C80FD11D8A8990E0DF91CF9108958FEFA2
:101B10009FEFFACFCF92DF92EF92FF920F931F9336
:101B2000CF93DF93EC016A017B0110E000E088892C
:101B3000811106C0CE010E94470D8889882399F043
:101B4000E98981E08E0F898B0F5F1F4FEC0FFD2F0E
:101B5000F11D8289F70181937F0188898150888BEB
:101B60000C151D0520F3C801DF91CF911F910F9136
:101B7000FF90EF90DF90CF900895CF93DF93EC012B
:101B80000E94470D8889882369F08150888B898954
:101B900091E0980F998BC80FD11D8A8990E0DF9151
:101BA000CF9108958FEF9FEFFACFCF93DF93EC01A2
:101BB0000E94470D888990E0DF91CF910895CF92E0
:101BC000DF92EF92FF920F931F93D12CC12CF12C37
:101BD000E12C10E000E030E020E00E94430B1F9178
:101BE0000F91FF90EF90DF90CF900895CF93DF9308
:101BF00000D01F92CDB7DEB7FC01278590E080E0D2
:101C0000222381F08CE6898386858A836B8343E077
:101C100050E0BE016F5F7F4F848595850E94DF0D88
:101C200081E090E00F900F900F90DF91CF91089599
:101C30000F931F93CF93DF9300D0CDB7DEB78C0106
:101C4000FC018785882369F08AE6898386858A83F3
:101C500042E050E0BE016F5F7F4F848595850E9412
:101C6000DF0DF8011786108A118A0F900F90DF910F
:101C7000CF911F910F9108958F929F92AF92BF9233
:101C8000EF92FF920F931F93CF93DF93CDB7DEB701
:101C9000A1970FB6F894DEBF0FBECDBF7C01FA014D
:101CA000CB0119A2223008F42AE08E010F5D1F4FEC
:101CB000822E912CB12CA12CBF01A50194010E9470
:101CC0007121F901CA016A3074F5605DD8016E9323
:101CD0008D01232B242B252B79F790E080E01097A2
:101CE00089F0FD0101900020E9F73197AF014A1B0F
:101CF0005B0BD701ED91FC910280F381E02DB801DF
:101D0000C7010995A1960FB6F894DEBF0FBECDBFEF
:101D1000DF91CF911F910F91FF90EF90BF90AF9007
:101D20009F908F900895695CD1CF8F929F92AF92D0
:101D3000BF92CF92DF92EF92FF920F931F93CF93B8
:101D4000DF937C01EB016C0182E0C80ED11C4701DE
:101D5000E5E08E0E911C10E000E0F60141916F016C
:101D600050E070E060E02AE0CE010E943C0E5C0191
:101D7000E881F9810190F081E02D6EE2CE010995B4
:101D80008A0D9B1D080F191FC814D90431F7F701DC
:101D9000458150E070E060E02AE0CE010E943C0EF8
:101DA000800F911FDF91CF911F910F91FF90EF90C6
:101DB000DF90CF90BF90AF909F908F900895DC01FF
:101DC00060E070E0CB01109709F40895FD010190E7
:101DD0000020E9F73197EA1BFB0BB9F3BF01CD01F6
:101DE0000895AF92BF92CF92DF92EF92FF920F933E
:101DF0001F93CF93DF9300D000D000D01F92CDB7B8
:101E0000DEB75C019B0183E489835A834B83FB012A
:101E100001900020E9F731978F01061B170BCC24A6
:101E2000C394D12CCE0106967C0143E050E0BE0164
:101E30006F5F7F4FD5011C968D919C910E94430B43
:101E4000892BB9F18E81F501868793E69C838D837A
:101E500001E010E09E01295F3F4F42E050E0BE01EB
:101E60006C5F7F4FD5011C968D919C910E94F50C63
:101E70008F81882339F061E070E080E090E00E947B
:101E80006205E6CF81E0F50187870190F081E02DC2
:101E90000688F789E02DC501099581111DC0D5017E
:101EA000ED91FC910488F589E02DC5010995F501B6
:101EB000168690E080E027960FB6F894DEBF0FBE3E
:101EC000CDBFDF91CF911F910F91FF90EF90DF90E9
:101ED000CF90BF90AF90089581E090E0ECCF0F934A
:101EE0001F93CF93DF93EC012115310591F0888189
:101EF0009981681B790B6217730790F08901BA0109
:101F0000A9010E94B42328813981200F311F398310
:101F1000288390E080E0DF91CF911F910F91089589
:101F20008FEF9FEFF8CFCF92DF92EF92FF920F9358
:101F30001F93CF93DF93EC018B0169017A01A90113
:101F40000E94C907009771F49601A701B801CE015C
:101F5000DF91CF911F910F91FF90EF90DF90CF9085
:101F60000C946F0FDF91CF911F910F91FF90EF9025
:101F7000DF90CF9008953F924F925F926F927F9241
:101F80008F929F92AF92BF92CF92DF92EF92FF9289
:101F90000F931F93CF93DF9300D0CDB7DEB7FB0134
:101FA00080809180FC0100811181F401019000206A
:101FB000E9F731977F01E818F9080E94DF01382E10
:101FC000882309F45EC0A0905103B0905203C090E2
:101FD0005303D0905403C8010E94DF0E2B013C0133
:101FE000E0918E03F0918F03B601A50180918C03DF
:101FF00090918D0309950091780310917903C09019
:102000007C03D0907D03DA82C9820C0D1D1DC201B4
:102010000296970150E040E0280F391F411D511DE5
:102020000C151D0509F442C080E3F6018083898107
:102030009A8101969A838983B801CE0101960E9404
:10204000BC060097A9F5A3019201B801CE01019643
:102050000E94930F009761F59701A401B801CE018A
:1020600001960E946F0F009719F589819A818C194A
:102070009D090E9405010097D9F4109296031092D1
:102080009503832D0F900F90DF91CF911F910F91AA
:10209000FF90EF90DF90CF90BF90AF909F908F9088
:1020A0007F906F905F904F903F9008958FEF9FEFDC
:1020B00090939603809395030E94D201312CE1CF37
:1020C0003F924F925F926F927F928F929F92AF92C8
:1020D000BF92CF92DF92EF92FF920F931F93CF9315
:1020E000DF93CDB7DEB7E5970FB6F894DEBF0FBE2E
:1020F000CDBF96E0492E512C0E94DF0181110E9434
:10210000D20180915503909156039093640380937C
:1021100063034091590350915A03609157037091A2
:102120005803DC01ED91FC910088F189E02D0995BF
:10213000181619060CF78FE0ECE1F1E0DE015F966E
:1021400001900D928A95E1F780904E0390904F0395
:102150003090500386E891E00E94DF0E6F8F78A3E5
:1021600089A39AA38BE991E00E94DF0E6EA37FA35F
:1021700088A799A784EA91E00E94DF0E6AA77BA74F
:102180008CA79DA740915103509152036091530336
:1021900070915403E0905B03F0905C039CA28BA2CF
:1021A0003DA28FE0FE017F96DE01509601900D92D8
:1021B0008A95E1F7E0918E03F0918F0380918C0373
:1021C00090918D0309959401AEEEB2E00E944820F3
:1021D000AB01BC0140937303509374036093750388
:1021E00070937603E0918E03F0918F0380918A03C0
:1021F00090918B030995109277035092940340922B
:1022000093030091780310917903C0907C03D090E0
:102210007D038FE0FE017096DE01119601900D9214
:102220008A95E1F728893989AF88B88C6B8C7C8CCA
:10223000DFA6CEA60C0D1D1D2E5F3F4F50E040E0E7
:10224000265F3F4F4F4F5F4FE114F10461F0F701FC
:102250008081918167817085860F971F0496280F72
:10226000391F411D511DA114B10479F0C501029619
:10227000280F391F411D511D6114710431F0C30134
:102280000296280F391F411D511DC016D10609F4B1
:102290007DC180E1D6018C938EA59FA501969FA755
:1022A0008EA7B801CE018E960E94BC06009709F059
:1022B00008C185EB91E00E94DF0E9B01AC01B801E3
:1022C000CE018E960E94930F009709F0FAC0EEA5FA
:1022D000FFA5E017F10709F459C184E08083EEA55A
:1022E000FFA59F012F5F3F4F3FA72EA7432D50E033
:1022F000440F551FE114F10489F0D70114968C9115
:102300001497880F880F880F4460842B8F7D169652
:102310004C91B0E24B9FA0011124482BA114B104B1
:1023200029F06114710409F0A6C040682017310734
:1023300009F42CC141838EA59FA501969FA78EA766
:10234000A401B801CE018E960E94C907009709F03A
:10235000B8C029813A814B815C81B801CE018E964B
:102360000E94930F009709F0ACC0E114F10409F04A
:1023700084C0AB28D1F0288539854A855B85B801B2
:10238000CE018E960E94930F009709F09AC067289D
:1023900061F02C853D854E855F85B801CE018E9616
:1023A0000E94930F009709F08CC08EA59FA58C19F1
:1023B0009D090E940501009709F083C01DAA1CAA6F
:1023C00042E050E070E060E0CE01C4960E94330825
:1023D000009709F076C08CA99DA9029709F0CFC09B
:1023E00000917A0310917B03E0917E03F0917F03CB
:1023F000FBABEAAB0E0F1F1FE017F10709F4C6C0D5
:102400008191FBABEAAB807F803209F0ACC0AE01BA
:10241000425D5F4FB801CE01C2960E94FC06009754
:1024200009F04FC08EA59FA5A8A9B9A90297A1053B
:10243000B10509F095C0EAA9FBA9E017F10709F475
:10244000A5C0CF0101969BAB8AAB8017910709F419
:102450009DC081813296FBABEAAB823009F46FC03C
:10246000A8F58823E1F1813009F462C05092940309
:102470004092930338C0406C59CFF70120813181DD
:1024800042815381B801CE018E960E94930F00972E
:10249000C1F4D70117964D915C91B801CE018E968B
:1024A0000E94C907009769F4F701278130854185AB
:1024B0005285B801CE018E960E946F0F009709F4E5
:1024C00058CF909396038093950356C0843009F4B7
:1024D00040C0C0F1853051F685E090E02BC01092ED
:1024E0009403109293038091930390919403892B0A
:1024F000E9F5109296031092950381E08093920380
:10250000E5960FB6F894DEBF0FBECDBFDF91CF9139
:102510001F910F91FF90EF90DF90CF90BF90AF9001
:102520009F908F907F906F905F904F903F90089515
:1025300081E090E09093940380939303D4CF82E062
:1025400090E0F8CFA3E0B0E0B0939403A09393039E
:10255000CACFE4E0F0E0F0939403E0939303C3CF99
:1025600088EF9FEFAECF87EF9FEFABCFA6EFBFEF28
:10257000B0939603A09395030E94D201BDCDE7EFDF
:10258000FFEFF0939603E0939503F6CF8FEF9FEF65
:1025900098CFFC01808191810C9454220F931F935A
:1025A000CF93DF93EC0188819981009759F02A81BC
:1025B0003B812617370730F081E0DF91CF911F91E3
:1025C0000F9108958B016F5F7F4F0E94DD2200976E
:1025D00059F0998388831B830A832C813D81232BA7
:1025E00059F7FC011082E8CF80E0E7CFEF92FF922D
:1025F0000F931F93CF93DF93EC01198218821B82F4
:102600001A821D821C8261157105E1F08B01FB01AC
:1026100001900020E9F731977F01E61AF70AB70128
:102620000E94CE1228813981811113C021153105F4
:1026300019F0C9010E945422198218821D821C823D
:102640001B821A82DF91CF911F910F91FF90EF9023
:102650000895FD82EC82B801C901DF91CF911F91ED
:102660000F91FF90EF900C94BD234F925F926F9269
:102670007F928F929F92AF92BF92CF92DF92EF9212
:10268000FF920F931F93CF93DF93CDB7DEB7699778
:102690000FB6F894DEBF0FBECDBF4B0129013A0142
:1026A000AB8ABC8ACD8ADE8AEF8AF88E098FCDB6D6
:1026B000DEB60E891F89A88CB98CC90101962DB789
:1026C0003EB7281B390B0FB6F8943EBF0FBE2DBF87
:1026D0008DB79EB701967C01A201B3010E94B4237D
:1026E0004E0C5F1CD2011C920115110521F0F8015E
:1026F000EA0DFB1D1082D4011496ED91FC91159703
:10270000309739F19501A801B7018D919C910995F8
:102710000FB6F894DEBE0FBECDBE0FB6F894DEBE87
:102720000FBECDBE69960FB6F894DEBF0FBECDBF0B
:10273000DF91CF911F910F91FF90EF90DF90CF909D
:10274000BF90AF909F908F907F906F905F904F90D1
:102750000895F40182819381892BD1F2B701CE01D2
:1027600007960E94F61263EE71E0CE010D960E946C
:10277000F6120115110509F1B801CE0101960E946A
:10278000F6128D859E85009769F169817A816115C0
:10279000710531F14F8558892D813E8142175307CC
:1027A000F8F00E94BD238D819E819A8B898B1E82B9
:1027B0001D82CE0101960E94C912D4011296ED919C
:1027C000FC91BE01635F7F4FCE0107960995CE0154
:1027D0000D960E94C912CE0107960E94C91298CF89
:1027E0000E94542289819A819E878D878B819C814A
:1027F000988B8F878D819E819A8B898B1A82198203
:102800001C821B82D4CFEF92FF920F931F93CF9322
:10281000DF93EC017B01FB0101900020E9F7319788
:102820008F01061B170BB8010E94CE122881398137
:10283000811113C02115310519F0C9010E945422DC
:10284000198218821D821C821B821A82DF91CF910D
:102850001F910F91FF90EF9008951D830C83B70196
:10286000C901DF91CF911F910F91FF90EF900C94D0
:10287000BD23EF92FF920F931F93CF93DF934115E8
:102880005105B1F07B01EC010C811D81040F151F76
:10289000B8010E94CE12882361F0288139818C8191
:1028A0009D81B701820F931F0E94BD231D830C835E
:1028B00081E0DF91CF911F910F91FF90EF900895EC
:1028C000CF93DF9300D0CDB7DEB72EE229831A82F3
:1028D00041E050E0BE016F5F7F4F0E9439140F90BE
:1028E0000F90DF91CF910895EF92FF920F931F9376
:1028F000CF93DF93CDB7DEB728970FB6F894DEBF3E
:102900000FBECDBF7C01CB014AE08E010F5F1F4F90
:10291000B8010E94EE1EF80101900020E9F73197FE
:10292000AF01401B510BB801C7010E943914289612
:102930000FB6F894DEBF0FBECDBFDF91CF911F91D0
:102940000F91FF90EF900895EF92FF920F931F93D6
:10295000CF93DF9300D000D0CDB7DEB77C01862FB8
:102960004AE08E010F5F1F4FB80190E00E94EE1EFB
:10297000F80101900020E9F73197AF01401B510B9E
:10298000B801C7010E9439140F900F900F900F905B
:10299000DF91CF911F910F91FF90EF900895CF920B
:1029A000DF92EF92FF920F931F93CF93DF9300D0AC
:1029B00000D000D0CDB7DEB77C018B016A0163EE99
:1029C00071E0CE0101960E94F61262E170E0CE0144
:1029D00001960E94CE12D80112966C91CE010196FA
:1029E0000E94A414CE0101960E946014F801638134
:1029F000CE0101960E94A414CE0101960E9460149B
:102A0000D80114966C91CE0101960E94A414CE01B7
:102A100001960E946014F8016581CE0101960E9422
:102A2000A41469817A81D701ED91FC910088F18924
:102A3000E02DA601C70109958C01CE0101960E94E7
:102A4000C912C80126960FB6F894DEBF0FBECDBFDF
:102A5000DF91CF911F910F91FF90EF90DF90CF907A
:102A600008951F920F920FB60F9211248F939F9388
:102A70008091E1009091E100937F9093E10083FFCA
:102A80000FC01092E90091E09093EB001092EC00DF
:102A900092E39093ED0010923E0298E09093F00044
:102AA00082FF22C093E09093E9009091F200992375
:102AB00019F09AE39093E80090912F02992341F046
:102AC00090912F02915090932F02911101C05D9A25
:102AD00090913D02992341F090913D029150909345
:102AE0003D02911101C0289A84FF18C08091E20034
:102AF0008E7E81608093E2008091E1008F7E8093E2
:102B0000E100809130028E7E8061809330029F913F
:102B10008F910F900FBE0F901F90189580FFF7CFE9
:102B20008091E2008E7E80618093E2008091E100DE
:102B30008E7E8093E100809130028E7E8160E5CFB1
:102B40001F920F920FB60F921124CF92DF92EF9245
:102B5000FF920F931F932F933F934F935F936F9326
:102B60007F938F939F93AF93BF93EF93FF93CF93F5
:102B7000DF93CDB7DEB76C97DEBFCDBF1092E90013
:102B80008091E80083FF25C068E0CE0145960E9451
:102B9000E70382EF8093E8008D8987FF39C0909129
:102BA000E80090FFFCCF982F907609F034C19E8901
:102BB0004F89588D2F89F88C911131C0803861F57B
:102BC00080912E028093F1001092F1008EEF80939D
:102BD000E8006C960FB6F894DEBF0FBECDBFDF9154
:102BE000CF91FF91EF91BF91AF919F918F917F9185
:102BF0006F915F914F913F912F911F910F91FF9096
:102C0000EF90DF90CF900F900FBE0F901F90189510
:102C10009EEF9093E800C7CF1092F100D5CF91308E
:102C200059F48111D3CF4130510581F680912E02A4
:102C30008D7F80932E02CACF933049F48111C6CF85
:102C40004130510519F680912E028260F2CF953005
:102C500041F48091E80080FFFCCF20682093E300DE
:102C6000B5CF963009F0A9C00B8D1C8D22E01092D3
:102C7000E90010922C0210922B02F2122EC0109238
:102C80002A02109229020E94B6031F8299E09983BA
:102C9000FA8291E09E8390EA98879AEF9987209133
:102CA0002B0230912C02275F3F4F3C832B838D8377
:102CB0001092E90010922C0210922B0210932A021B
:102CC0000093290249E050E0BE016F5F7F4F80E032
:102CD0000E9490030E94B60379CF10932A020093BA
:102CE00029020E949A02DC0112960D911C91011595
:102CF000110509F451C1D801ED91FC910480F581D1
:102D0000E02DBE016B5E7F4FC8010995009709F069
:102D10003EC1F80100851185EACFF3E0FF120EC035
:102D20008F89882309F440C0823061F440E86BE069
:102D30008AE391E00E945D03811148CF81E2809394
:102D4000EB0047CF813029F440E86BE08EE291E060
:102D5000F1CF833099F70E949A02DC011296ED9030
:102D6000FC908E010F5F1F4F6801E114F10479F0B0
:102D7000D701ED91FC910680F781E02DB801C701E4
:102D80000995080F111DF701E084F184EECFD801F9
:102D90001C92F60101900020E9F73197BF016C19F0
:102DA0007D0940E0C601C6CF68E171E0FB014491B6
:102DB00050E080E80E94900309CF973009F4BECF1D
:102DC000983021F481E08093F10000CF993009F030
:102DD000FDCE837009F0B2CFE6E3F1E081E031E0AF
:102DE00096E32191222371F08093E9003093EB0068
:102DF000DF0111972C912093EC009093ED008F5FF1
:102E0000873079F78EE78093EA001092EA008F8985
:102E100080933E02DBCE8B8D9C8D1092E900109248
:102E20002C0210922B0290932A0280932902898D02
:102E3000811192C08E899D89913A49F4813209F0BD
:102E40007DCF47E050E06EE071E080E0B3CF91329B
:102E500009F074CF833269F48F89988DB0E0A0E0D7
:102E600080930A0190930B01A0930C01B0930D0184
:102E7000ADCE803269F48091E80082FFFCCF67E03C
:102E80008EE091E00E94E7038BEF8093E8009ECEF6
:102E9000823209F09BCE8F8980931501EEEFFFE718
:102EA000859194918B3F9C4D51F1E0E0F8E0809149
:102EB0000E0190910F01A0911001B0911101803B82
:102EC0009440A105B105F1F48091150180FD1AC06F
:102ED000EE3F8AE0F80789F587E797E791838083DB
:102EE0008091600080932D0288E19BE00FB6F894FA
:102EF000A895809360000FBE9093600067CEEEEFC0
:102F0000FAE0D5CF808191818737974709F05ECE6F
:102F1000A8958091600088618093600080912D0267
:102F200080936000EE3F2AE0F20789F08091FE0A6C
:102F30009091FF0A9183808349CE80819181873768
:102F4000980751F29093FF0A8093FE0AC5CF109222
:102F5000FF0A1092FE0A3ACE0E949A02DC011296F3
:102F60000D911C910115110509F4E8CED801ED91E0
:102F7000FC910190F081E02DBE016B5E7F4FC80196
:102F80000995811123CEF80100851185EBCF181624
:102F900019060CF41BCED2CEF1E0FF12BECE6CE1CE
:102FA00071E004CF1F920F920FB60F9211242F934E
:102FB0003F934F935F936F937F938F939F93AF93C1
:102FC000BF93EF93FF938BE992E00E94B004FF91CF
:102FD000EF91BF91AF919F918F917F916F915F9191
:102FE0004F913F912F910F900FBE0F901F9018950A
:102FF0001F920F920FB60F9211242F938F939F93CE
:10300000EF93FF93E091AB02F091AC028081E091ED
:10301000B102F091B20282FD1BC090818091B40296
:103020008F5F8F732091B502821741F0E091B40257
:10303000F0E0E556FD4F958F8093B402FF91EF913C
:103040009F918F912F910F900FBE0F901F90189509
:103050008081F4CF1F920F920FB60F9211242F93FD
:103060003F938F939F93AF93BF938091ED01909186
:10307000EE01A091EF01B091F0013091EC0123E05D
:10308000230F2D3758F50196A11DB11D2093EC019A
:103090008093ED019093EE01A093EF01B093F001C6
:1030A0008091F1019091F201A091F301B091F401AE
:1030B0000196A11DB11D8093F1019093F201A0939F
:1030C000F301B093F401BF91AF919F918F913F9124
:1030D0002F910F900FBE0F901F90189526E8230F89
:1030E0000296A11DB11DD2CF1F920F920FB60F9263
:1030F00011242F933F934F935F936F937F938F93FD
:103100009F93AF93BF93EF93FF93E0910801F091EA
:1031100009010995FF91EF91BF91AF919F918F9117
:103120007F916F915F914F913F912F910F900FBEC3
:103130000F901F9018951F920F920FB60F921124A7
:103140002F933F934F935F936F937F938F939F93AF
:10315000AF93BF93EF93FF93E0910601F0910701C6
:103160000995FF91EF91BF91AF919F918F917F91C1
:103170006F915F914F913F912F910F900FBE0F90E4
:103180001F9018951F920F920FB60F9211242F9334
:103190003F934F935F936F937F938F939F93AF93DF
:1031A000BF93EF93FF93E0910401F091050109951E
:1031B000FF91EF91BF91AF919F918F917F916F910F
:1031C0005F914F913F912F910F900FBE0F901F90E5
:1031D00018951F920F920FB60F9211242F933F93C1
:1031E0004F935F936F937F938F939F93AF93BF930F
:1031F000EF93FF93E0910201F09103010995FF9194
:10320000EF91BF91AF919F918F917F916F915F915E
:103210004F913F912F910F900FBE0F901F901895D7
:103220001F920F920FB60F9211242F933F934F933B
:103230005F936F937F938F939F93AF93BF93EF931E
:10324000FF93E0910001F09101010995FF91EF9149
:10325000BF91AF919F918F917F916F915F914F91AE
:103260003F912F910F900FBE0F901F901895CF9305
:10327000DF93EFE3F2E01382128248EE53E060E066
:1032800070E0448355836683778380E491E0918383
:1032900080838FEF9FEF95878487EBE9F2E01382BD
:1032A0001282448355836683778382E591E091831C
:1032B00080838DEC90E0958784878CEC90E09787F5
:1032C000868788EC90E0918B808B89EC90E0938BE3
:1032D000828B8AEC90E0958B848B8EEC90E0978BC0
:1032E000868B118E128E138E148EAFE8B2E084E8B6
:1032F00091E011969C938E9312961C9212971396BE
:103300001C92139714961C92149715961C92A5E97B
:10331000B2E011969C938E9312961C92129713967C
:103320001C92139714961C92149715961C92A7E959
:10333000B3E01C921696FC93EE93159717961C9289
:10334000179718961C9218971A96FC93EE93199754
:10335000E4EFF3E09183808312821382148215825A
:10336000E2EAF3E013821282448355836683778313
:1033700084E691E091838083B587A48716861786BB
:10338000108AC8E4D3E08AE090E09F838E8381E0D6
:10339000888749875A876B877C871E861D86188A8F
:1033A0001F861A8A198A1C8A1B8A1E8A1D8A188EF1
:1033B0001F8A1A8E198E1C8E1B8E1D8E1E8E1F8EBE
:1033C00018A21AA219A21BA21CA21DA21EA218A614
:1033D0001FA21092920310929403109293031092E2
:1033E000960310929503E1E7F3E081E2DF011D927D
:1033F0008A95E9F780E890E09983888381E890E0F6
:103400000E94B8219B838A8380E890E00E94B821C3
:103410009D838C830E941906609344037093450337
:1034200080934603909347030E94190660934003DC
:103430007093410380934203909343030E941906C3
:1034400060933C0370933D0380933E0390933F034E
:103450000E941906609338037093390380933A03EE
:1034600090933B03DF91CF910895CF93DF93CDB736
:10347000DEB76A970FB6F894DEBF0FBECDBF789463
:1034800084B5826084BD84B5816084BD85B5826069
:1034900085BD85B5816085BD80916E00816080931A
:1034A0006E00109281008091810082608093810083
:1034B0008091810081608093810080918000816093
:1034C0008093800080919100826080939100809130
:1034D0009100816080939100809190008160809341
:1034E00090008091C10084608093C1008091C100F0
:1034F00082608093C1008091C10081608093C1008F
:103500008091C30081608093C3008091C00082607D
:103510008093C0008091C20081608093C20080913E
:103520007A00846080937A0080917A008260809330
:103530007A0080917A00816080937A0080917A008D
:10354000806880937A0010923E0210922E021092B0
:1035500030028091D70081608093D70080EA809309
:10356000D80089B5806189BD89B5826089BD09B4FB
:1035700000FEFDCF61E070E080E090E00E94620517
:103580008091D8008F7C80618093D8008091E0008A
:10359000807F8093E0008091E1008E7E8093E10047
:1035A0008DE08093E200559A209AE0E8F1E02491C2
:1035B000E1E6F1E08491882399F090E0880F991F6B
:1035C000FC01E455FF4FA591B491FC01EA5BFE4F6D
:1035D000859194918FB7F894EC91E22BEC938FBF87
:1035E000E091A003F091A103A089B18982E08C93BE
:1035F000A485B5851C92A685B78587E08C93108E2F
:10360000A489B58986E08C93A289B3898C91806165
:103610008C93A289B3898C9188608C93A289B38999
:103620008C9180688C930288F389E02D80818F7D56
:10363000808380919E038111B9C081E080939E03B5
:1036400087E993E00E94DB0A68EE73E080E090E097
:103650000E94620580919C0390919D03DC01ED9195
:10366000FC910084F185E02D09951816190644F3A4
:10367000FF24F39462E3E62E85E0EBE2F1E0DE0165
:103680001F9601900D928A95E1F7F0929F0345E015
:1036900050E0BE01615F7F4F87E993E00E94DF0D3C
:1036A00080919C0390919D03DC01ED91FC91019030
:1036B000F081E02D63E009956AEF70E080E090E032
:1036C0000E94620568EC70E080919C0390919D03DC
:1036D0000E940E046AEF70E080E090E00E946205B4
:1036E00066EC70E080919C0390919D030E940E0413
:1036F00064EF71E080E090E00E9462056AEB70E0A8
:1037000080919C0390919D030E940E0464EF71E0F0
:1037100080E090E00E94620587E993E00E94DB0A66
:1037200085E0E0E3F1E0DE01119601900D928A95CB
:10373000E1F7E0929F0304E010E09E012B5E3F4F13
:1037400045E050E0BE016F5F7F4F87E993E00E9444
:10375000F50C8F3F980739F468EE73E080E090E055
:103760000E94620589CF2D892111FFCF049709F0AE
:10377000E7C22E892053330B44E6429FC001439F8A
:10378000900D11242F89EAE02E9F800D911D1124A8
:10379000805E9140288D2053330B820F931F9093AE
:1037A00099038093980382E380939F03809157034A
:1037B00090915803009711F00E9454228AEB91E0F7
:1037C0000E949A2390935803809357038BE597E0C8
:1037D00090935A038093590382EA93E0909356039F
:1037E00080935503809148039091490320914A03A7
:1037F00030914B0340914C0350914D0361E070E0D8
:1038000070937203609371031092730310927403A8
:1038100010927503109276031092770350937D03F4
:1038200040937C03909379038093780330937F03D4
:1038300020937E0390937B0380937A0310928103FD
:1038400010928003109283031092820310928503DA
:1038500010928403109287031092860310928903BA
:103860001092880385E693E090938B0380938A03FC
:103870008BE693E090938D0380938C038BE796E027
:1038800090938F0380938E038BE996E0909391033E
:103890008093900340E050E0BA0185E693E00E94F7
:1038A0007B06E0918E03F0918F0340E050E0BA0177
:1038B00080918C0390918D03099583E693E090931A
:1038C00085038093840388E69AE09093870380932E
:1038D000860384EF93E090938903809388038DE5BA
:1038E00093E0909383038093820385E393E1909325
:1038F0008103809380030E9460105DEFC52E51E02C
:10390000D52ED6011D921D921D921D926D01B5E21C
:10391000CB16B2E0DB06A9F785E296E090930301AF
:1039200080930201809169008C6080936900E99A1C
:103930008E010F5F1F4F3AEC232E30E0332E43EF02
:10394000842E99249A9420E0A22E20E0B22E0E9488
:10395000DF01882309F48FC08091550390915603AD
:10396000DC01ED91FC910084F185E02D09957C014D
:10397000892B01F1409151035091520360915303FF
:1039800070915403E0918E03F0918F0380918C032A
:1039900090918D0309951A82198250E040E0B70199
:1039A000C8010E943308009709F0DBC1109296030A
:1039B000109295034091510350915203609153032B
:1039C00070915403E0918E03F0918F0380918C03EA
:1039D00090918D0309958091730390917403A09148
:1039E0007503B0917603892B8A2B8B2B09F43FC08A
:1039F000E0919003F091910380918A0390918B0361
:103A0000099516161706180619068CF1809177038A
:103A1000811199C16091780370917903E0907C03E2
:103A2000F0907D03FA82E9826E0D7F1D6E157F0591
:103A300009F495C120ECF701208389819A810196D0
:103A40009A83898320E030E0A901C8010E94BC0666
:103A5000009709F086C189819A818E199F090E9479
:103A60000501009709F07DC131E030937703109292
:103A70009603109295030E94DF01811102C00E94FB
:103A800060108091250290912602209127023091AA
:103A900028022817390709F443C09093280280931D
:103AA00027029DEFE92E91E0F92E412C512C320195
:103AB000D7016D917D918D919D917D010E94541F43
:103AC0009B01AC01C301B2010E9458202B013C01B3
:103AD000CE14DF0469F720E030E040E251E40E94B8
:103AE000C4209B01AC0160E070E68AE697E40E9486
:103AF000C4202B013C0120E030E0A9010E946C2190
:103B000020E030E040E05FE387FD24C1C301B20163
:103B10000E9458200E9436217093FC016093FB01A3
:103B20000E94190640903C0350903D0360903E0374
:103B300070903F036419750986099709693E7340BF
:103B40008105910508F466C00E94190660933C0344
:103B500070933D0380933E0390933F036BEC71E0C1
:103B6000CE0145960E94F61263EE71E0CE010F96EB
:103B70000E94F61262ED71E0CE0145960E94031498
:103B800063EE71E0CE010F960E9403146091FB0179
:103B90007091FC01CE010F960E94741441E050E038
:103BA00062EE71E0CE010F960E9439146091F70128
:103BB0007091F8018091F9019091FA012AE0A80131
:103BC0000E94F91EF80101900020E9F73197AF013A
:103BD000401B510BB801CE010F960E943914BE0153
:103BE000615F7F4FCE0145960E94BB0F81E00E942E
:103BF000F3016AE070E080E090E00E94620580E0FE
:103C00000E94F301CE010F960E94C912CE01459683
:103C10000E94C9120E94190640903803509039033F
:103C200060903A0370903B036419750986099709FF
:103C3000693E73408105910508F476C00E9419061B
:103C4000609338037093390380933A0390933B0356
:103C50008AE0E82EF12C412C512C3201F1018491A3
:103C600020917B00982F990F990F90722F7D922BA6
:103C700090937B008770806480937C0080917A00B1
:103C8000806480937A0080917A0086FDFCCF9091C9
:103C9000780080917900892798278927092E000CC0
:103CA000AA0BBB0B480E591E6A1E7B1E65E070E016
:103CB00080E090E00E946205F1E0EF1AF10871F6F1
:103CC000C301B2012AE030E040E050E00E949321BD
:103CD00029013093F6012093F50164EE71E0CE01E5
:103CE0000F960E94F61263EE71E0C8010E94F61270
:103CF000B201C8010E947414B801CE010F960E944F
:103D0000BB0F81E00E94F3016AE070E080E090E088
:103D10000E94620580E00E94F301C8010E94C9125E
:103D2000CE010F960E94C912A114B10409F40FCE5E
:103D30000E949C04882309F406CE0E94000003CE52
:103D400084E690E02CCD90929603809295030E9499
:103D5000D20191CEC301B2010E945720DBCE8FEF7A
:103D60009FEF9093960380939503F1CFE0915B03CF
:103D7000F0915C033097F1F087819085892B21F0D9
:103D8000818592850E945422E0915B03F0915C034F
:103D900080819181892B21F0828193810E9454221C
:103DA00080915B0390915C030E94542210925C030B
:103DB00010925B038091570390915803009711F084
:103DC0000E94542280914A0390914B030E945422F6
:103DD00080914C0390914D030C945422BB274A30A0
:103DE00031F4992322F4BDE2909581959F4F0C9474
:103DF0002B1FBB272A3051F4992342F4BDE2909542
:103E00008095709561957F4F8F4F9F4F0C94091F40
:103E1000BB27FA01A62F6217710581059105330BA7
:103E200030FB66F0AA27660F771F881F991FAA1F0D
:103E3000A21710F0A21B63953850A9F7A05DAA3312
:103E400008F0A95DA19336F7B111B1931082CA01B0
:103E50000C94441FBB27FB015527AA27880F991FE5
:103E6000AA1FA41710F0A41B83955051B9F7A05DA9
:103E7000AA3308F0A95DA193009779F7B111B19326
:103E80001192CB010C94441FDC01FC01672F71914E
:103E90007723E1F7329704C07C916D937083629130
:103EA000AE17BF07C8F30895E89409C097FB3EF426
:103EB00090958095709561957F4F8F4F9F4F992377
:103EC000A9F0F92F96E9BB279395F69587957795F5
:103ED0006795B795F111F8CFFAF4BB0F11F460FFB5
:103EE0001BC06F5F7F4F8F4F9F4F16C0882311F00D
:103EF00096E911C0772321F09EE8872F762F05C021
:103F0000662371F096E8862F70E060E02AF09A95BB
:103F1000660F771F881FDAF7880F9695879597F9B0
:103F20000895990F0008550FAA0BE0E8FEEF16164A
:103F30001706E807F907C0F012161306E407F5079D
:103F400098F0621B730B840B950B39F40A2661F011
:103F5000232B242B252B21F408950A2609F4A140B4
:103F6000A6958FEF811D811D089597F99F6780E8C1
:103F700070E060E008959FEF80EC089500240A94BB
:103F80001616170618060906089500240A94121634
:103F90001306140605060895092E0394000C11F467
:103FA000882352F0BB0F40F4BF2B11F460FF04C014
:103FB0006F5F7F4F8F4F9F4F089557FD9058440F6D
:103FC000551F59F05F3F71F04795880F97FB991F78
:103FD00061F09F3F79F08795089512161306140635
:103FE000551FF2CF4695F1DF08C0161617061806C2
:103FF000991FF1CF86957105610508940895E8949D
:10400000BB2766277727CB0197F908950E944820A0
:10401000A59F900DB49F900DA49F800D911D11241C
:1040200008952F923F924F925F926F927F928F925C
:104030009F92AF92BF92CF92DF92EF92FF920F9337
:104040001F93CF93DF93CDB7DEB7CA1BDB0B0FB641
:10405000F894DEBF0FBECDBF09942A8839884888FE
:104060005F846E847D848C849B84AA84B984C88494
:10407000DF80EE80FD800C811B81AA81B981CE0F8B
:10408000D11D0FB6F894DEBF0FBECDBFED01089570
:10409000A29FB001B39FC001A39F700D811D112489
:1040A000911DB29F700D811D1124911D08955058CE
:1040B000BB27AA270E946F200C94CC1F0E94BE1F12
:1040C00038F00E94C51F20F039F49F3F19F426F400
:1040D0000C94BB1F0EF4E095E7FB0C94B51FE92F81
:1040E0000E94DD1F58F3BA1762077307840795070C
:1040F00020F079F4A6F50C94FF1F0EF4E0950B2E3A
:10410000BA2FA02D0B01B90190010C01CA01A00129
:104110001124FF27591B99F0593F50F4503E68F184
:104120001A16F040A22F232F342F4427585FF3CFC5
:10413000469537952795A795F0405395C9F77EF496
:104140001F16BA0B620B730B840BBAF09150A1F0DF
:10415000FF0FBB1F661F771F881FC2F70EC0BA0F65
:10416000621F731F841F48F4879577956795B795ED
:10417000F7959E3F08F0B0CF9395880F08F09927E8
:10418000EE0F9795879508950E94D8200C94CC1F28
:104190000E94C51F58F00E94BE1F40F029F45F3FE7
:1041A00029F00C94B51F51110C9400200C94BB1FE6
:1041B0000E94DD1F68F39923B1F3552391F3951BFA
:1041C000550BBB27AA2762177307840738F09F5F38
:1041D0005F4F220F331F441FAA1FA9F335D00E2EA5
:1041E0003AF0E0E832D091505040E695001CCAF712
:1041F0002BD0FE2F29D0660F771F881FBB1F2617D5
:1042000037074807AB07B0E809F0BB0B802DBF01AB
:10421000FF2793585F4F3AF09E3F510578F00C947A
:10422000B51F0C9400205F3FE4F3983ED4F38695CD
:1042300077956795B795F7959F5FC9F7880F911D9B
:104240009695879597F90895E1E0660F771F881F87
:10425000BB1F621773078407BA0720F0621B730B3A
:10426000840BBA0BEE1F88F7E09508950E943D215C
:104270006894B1110C94002008950E94E51F88F005
:104280009F5798F0B92F9927B751B0F0E1F0660F1A
:10429000771F881F991F1AF0BA95C9F714C0B1305B
:1042A00091F00E94FF1FB1E008950C94FF1F672F4B
:1042B000782F8827B85F39F0B93FCCF3869577958A
:1042C0006795B395D9F73EF4909580957095619573
:1042D0007F4F8F4F9F4F08950E94911F08F48FEFDB
:1042E0000895A1E21A2EAA1BBB1BFD010DC0AA1F37
:1042F000BB1FEE1FFF1FA217B307E407F50720F04F
:10430000A21BB30BE40BF50B661F771F881F991FC9
:104310001A9469F760957095809590959B01AC0112
:10432000BD01CF010895052E97FB1EF400940E9455
:10433000AA2157FD07D00E94712107FC03D04EF43B
:104340000C94AA2150954095309521953F4F4F4FA1
:104350005F4F089590958095709561957F4F8F4F31
:104360009F4F0895EE0FFF1F0590F491E02D0994E3
:104370000F931F93CF93DF938230910510F482E067
:1043800090E0E091FC03F091FD0330E020E0B0E02C
:10439000A0E0309799F42115310509F44AC0281B93
:1043A000390B24303105D8F58A819B81611571055F
:1043B00089F1FB0193838283FE0111C04081518109
:1043C0000281138148175907E0F04817590799F4FB
:1043D000109761F012960C93129713961C933296D5
:1043E000CF01DF91CF911F910F9108950093FC03AE
:1043F0001093FD03F4CF2115310551F042175307F7
:1044000038F0A901DB019A01BD01DF01F801C1CF3C
:10441000EF01F9CF9093FD038093FC03CDCFFE0114
:10442000E20FF31F8193919322503109398328833E
:10443000D7CF2091FA033091FB03232B41F4209135
:104440001801309119013093FB032093FA03209156
:104450001601309117012115310541F42DB73EB7F2
:1044600040911A0150911B01241B350BE091FA0376
:10447000F091FB03E217F307A0F42E1B3F0B281764
:10448000390778F0AC014E5F5F4F2417350748F0CD
:104490004E0F5F1F5093FB034093FA038193919358
:1044A0009FCFF0E0E0E09CCFCF93DF930097E9F05F
:1044B000FC01329713821282A091FC03B091FD039C
:1044C000ED0130E020E01097A1F420813181820FCE
:1044D000931F2091FA033091FB032817390709F045
:1044E00061C0F093FB03E093FA03DF91CF9108954D
:1044F000EA01CE17DF07E8F54A815B819E0141158D
:104500005105B1F7E901FB83EA8349915991C40F41
:10451000D51FEC17FD0761F4808191810296840F0D
:10452000951FE90199838883828193819B838A8384
:10453000F0E0E0E012968D919C9113970097B9F509
:104540002D913C911197CD010296820F931F2091DE
:10455000FA033091FB032817390739F6309751F5E4
:104560001092FD031092FC03B093FB03A093FA0397
:10457000BCCFD383C28340815181840F951FC8175C
:10458000D90761F44E5F5F4F88819981480F591FA9
:10459000518340838A819B819383828321153105D6
:1045A00009F0B0CFF093FD03E093FC039ECFFD0133
:1045B000DC01C0CF13821282D7CFB0E0A0E0E3EEDF
:1045C000F2E20C9413208C01009751F4CB010E946D
:1045D000B8218C01C801CDB7DEB7E0E10C942F20E3
:1045E000FC01E60FF71F9C0122503109E217F30787
:1045F00008F49DC0D901CD91DC911197C617D7075A
:1046000098F0C530D10530F3CE010497861797078F
:1046100008F3C61BD70B2297C193D1936D937C935C
:10462000CF010E945422D6CF5B01AC1ABD0A4C01C7
:104630008C0E9D1EA091FC03B091FD03512C412CCA
:10464000F12CE12C109731F58091FA039091FB0346
:104650008815990509F05CC04616570608F058C041
:104660008091160190911701009741F48DB79EB784
:1046700040911A0150911B01841B950BE817F90713
:1046800008F055C0F093FB03E093FA03F90171833E
:104690006083A0CF8D919C91119712966C90129788
:1046A00013967C901397A815B90559F56C0142E053
:1046B000C40ED11CCA14DB0420F1AC014A195B09F9
:1046C000DA011296159780F06282738251834083DB
:1046D000D9016D937C93E114F10471F0D701139625
:1046E000FC93EE93129776CF22968C0F9D1FF901C3
:1046F00091838083F301EFCFF093FD03E093FC03FC
:1047000069CF4816590608F42C017D01D3019ACFD0
:10471000CB010E94B8217C01009749F0AE01B8019D
:104720000E94B423C8010E945422870153CF10E095
:1047300000E050CF0F931F93CF93DF938C01FC01C8
:1047400001900020E9F7CF01801B910B0E94B82156
:10475000EC01009719F0B8010E94BD23CE01DF9152
:10476000CF911F910F910895FB01DC0102C00190D0
:104770000D9241505040D8F70895FB01DC010190A3
:104780000D920020E1F7089510E0CAEDD0E004C0DA
:10479000FE010E94B2212196CB3DD107C9F7F894C2
:0247A000FFCF49
:1047A200BB06BB06BB06BB06BB06FFFFFFFF00E165
:1047B2000000000000000000FE0380000000000076
:1047C2003C000100000000000000005858585858F2
:1047D200585831303000C1808100000000000000D4
:1047E200AE029405CF02C4021503D302F102000007
:1047F2000000D10432045F041D0590046E0482049B
:1048020000000000F60DBF0CD80ACB0AD50DBD0D75
:10481200770DCF14F10E8A0D180E0A0DD50ACC0AA7
:1048220000000000950E61726475696E6F2D7975D6
:104832006E2D76697A696E76697A006563663932B9
:1048420039666500663635626465313964386534C7
:1048520036643637004D5154540062726F6B657284
:104862002E7368696674722E696F002F70756C738F
:1048720065002F70756C73652F696E746572766151
:0A4882006C002C002F677372000019
:1070000055C000006EC000006CC000006AC00000E7
:1070100068C0000066C0000064C0000062C00000DC
:1070200060C000005EC00000FCC400005AC0000048
:1070300058C0000056C0000054C0000052C00000FC
:1070400050C000005DC000004CC000004AC00000FD
:1070500048C0000046C0000044C0000042C000001C
:1070600040C000003EC000003CC000003AC000002C
:1070700038C0000036C0000034C0000032C000003C
:1070800030C000002EC000002CC000002AC000004C
:1070900028C0000026C0000024C0000022C000005C
:1070A00020C000001EC000001CC0000011241FBE34
:1070B000CFEFDAE0DEBFCDBF11E0A0E0B1E0E6E463
:1070C000FFE702C005900D92A63AB107D9F711E08B
:1070D000A6EAB1E001C01D92AF3BB107E1F74FD383
:1070E00030C78ECFF89410926F001092810081E02B
:1070F00085BF15BE47985D9A289A0C9400000895A4
:107100001F920F920FB60F9211242F938F939F937C
:10711000EF93FF9310928500109284008091A60156
:107120009091A701009741F001979093A701809358
:10713000A601892B09F45D9A8091A8019091A9017B
:10714000009741F001979093A9018093A801892BA2
:1071500009F4289A8091AC019091AD010196909329
:10716000AD018093AC01E0E0F0E0859194918F5FF8
:107170009F4F49F08091AA019091AB0101969093A5
:10718000AB018093AA01FF91EF919F918F912F9175
:107190000F900FBE0F901F90189584E08093E90028
:1071A0000DC08091E8008B778093E80003C08EB318
:1071B000882351F08091E80082FFF9CF8091E800A8
:1071C00085FFEFCF8091F1000895982F83E08093A1
:1071D000E9008091E80085FD0DC08091E8008E7780
:1071E0008093E80003C08EB3882369F08091E800A3
:1071F00080FFF9CF9093F1005D9884E690E0909342
:10720000A7018093A60108954F925F926F927F929B
:107210008F929F92AF92BF92CF92DF92EF92FF92A6
:107220000F931F93CF93DF9384E08093E9008091C5
:10723000E80082FF57C2289884E690E09093A90165
:107240008093A801AADF182F853481F48CE49DE196
:107250009093AB018093AA0107B600FCFDCFF9998A
:10726000FECF81E180935700E89503C0843519F47F
:1072700094DF8DE00DC28C34E1F38035D1F3843797
:1072800021F484E4A2DF80E003C2813611F489E5B1
:10729000FFC18134B1F481DF182F7FDF90E0880FC8
:1072A000991FAA2797FDA095BA2F312F330F20E001
:1072B000442737FD4095542F822B932BA42BB52BBD
:1072C000B8C1803711F483E5E3C1833549F4C0E0E8
:1072D000D1E089917ADF21E0C730D207D1F7D9C157
:1072E000863521F481E371DF80E3D2C1833731F445
:1072F00087E86BDF85E969DF8EE1CAC18536B9F4BD
:10730000E0E0F0E093E085E090935700E89507B661
:1073100000FCFDCF80935700E89507B600FCFDCF39
:10732000E058FF4FA0E7E030FA0771F7A2CF8237AD
:1073300039F4E1E0F0E089E0809357008491A8C13E
:10734000863439F4E0E0F0E089E0809357008491DE
:107350009FC18E3439F4E3E0F0E089E08093570078
:10736000849196C1813539F4E2E0F0E089E08093C0
:10737000570084918DC1823631F489E526DF80E0A3
:1073800024DF80E885C1823419F0873609F0E5C032
:107390001092AB011092AA0100DF082FFEDEF82E3A
:1073A000FCDE682E8554823008F071C1902F80E099
:1073B000CF2DD0E0C82BD92B10926F00173609F0D3
:1073C0004BC081E180935700E895DD24CC24C39421
:1073D0003FC0E090AF01F090B0010091B101109179
:1073E000B201B6E46B16D9F4ED2DF0E0EE29FF29D9
:1073F000E4918E2FEADEDD2081F082E090E0A0E0D3
:10740000B0E0E80EF91E0A1F1B1FE092AF01F092D8
:10741000B0010093B1011093B201DC2418C0D8016F
:10742000C701B695A7959795879575D5CEDE82E06D
:1074300090E0A0E0B0E0E80EF91E0A1F1B1FE092EA
:10744000AF01F092B0010093B1011093B201219706
:10745000209709F0BECF7DC08090AF019090B00121
:10746000A090B101B090B20196E4691609F05DC038
:1074700083E0F40180935700E89507B600FCFDCF48
:1074800054C0F6E46F1661F5772031F1E090AF015A
:10749000F090B0010091B1011091B2017EDED82EC2
:1074A000CC24852D90E08C299D29F7010C01409278
:1074B0005700E895112482E090E0A0E0B0E0E80EEB
:1074C000F91E0A1F1B1FE092AF01F092B00100935A
:1074D000B1011093B20102C060DE582E742423C0A3
:1074E000E090AF01F090B0010091B1011091B201B4
:1074F00016950795F794E79450DE682FC70113D5CA
:107500008091AF019091B001A091B101B091B20111
:107510000296A11DB11D8093AF019093B001A0937D
:10752000B101B093B201219704C0552477244424BB
:107530004394209709F0A5CF96E4691641F485E0BD
:10754000F40180935700E89507B600FCFDCF8DE06D
:107550003CDE82E080936F009CC0833471F4009124
:10756000AF011091B00119DE90E021E0F8010C01AB
:1075700020935700E89511247CCE833619F5E090CE
:10758000AF01F090B0010091B1011091B20105DEA0
:10759000F701E16090E021E00C0120935700E895AD
:1075A000112482E090E0A0E0B0E0E80EF91E0A1F8E
:1075B0001B1FE092AF01F092B0010093B101109354
:1075C000B20157CE8D3661F4E091AF01F091B00178
:1075D00085E080935700E89507B600FCFDCF49CEC3
:1075E000823551F4E091AF01F091B0010591149111
:1075F000812FEBDD802F4CC0843421F5E090AF016A
:10760000F090B0010091B1011091B201169507956B
:10761000F794E794C2DD682FC70185D48091AF014C
:107620009091B001A091B101B091B2010296A11D5B
:10763000B11D8093AF019093B001A093B101B093BD
:10764000B20117CE843609F5E090AF01F090B00199
:107650000091B1011091B201D801C701B695A7956B
:107660009795879558D4B1DD82E090E0A0E0B0E036
:10767000E80EF91E0A1F1B1FE092AF01F092B00145
:107680000093B1011093B20104C08B3111F08FE36C
:107690009CDD83E08093E9009091E8008091E80010
:1076A0008E778093E80095FF04C010C08EB38823C6
:1076B000C9F08091E80080FFF9CF8091E8008E77D3
:1076C0008093E80003C08EB3882361F08091E800C6
:1076D00080FFF9CF84E08093E9008091E8008B7708
:1076E0008093E800DF91CF911F910F91FF90EF9071
:1076F000DF90CF90BF90AF909F908F907F906F90D2
:107700005F904F9008959091B701892F8F778132C4
:1077100049F58091B8018032A1F0813219F5913A92
:1077200009F58091E800877F8093E8008CE091E084
:1077300067E070E027D28091E8008B778093E800C3
:107740000895913279F48091E800877F8093E80072
:107750008CE091E067E070E079D28091E8008E776C
:107760008093E800089582E061EC42E0D1D083E0AC
:1077700061E842E1CDD084E060E842E1C9C01F93F6
:10778000209100081092000844B714BE88E10FB69B
:10779000F89480936000109260000FBE80E8E0E0F3
:1077A000F0E00FB6F89480936100E09361000FBEA3
:1077B00031E035BF92E095BF3F9A209A559A809369
:1077C00061001092610047985D9A289A1092890092
:1077D0008AEF8093880090936F0083E0809381000C
:1077E000859194918F5F9F4F11F03093AE01942F4C
:1077F00041FF19C0809109012817A9F08093000862
:10780000789480911301882339F08091AC01909194
:10781000AD018F5E9240C8F310920008F89481E0A9
:10782000809313010CC090FF04C08091AE018823A7
:1078300051F493FF09C080910901281729F0809124
:10784000AE01882309F04EDCD4D078941092AB01BD
:107850001092AA011EEF20C0D7DC4BD38091AA0161
:107860009091AB0181549F4110F0109213018091CF
:10787000B3019091B40101969093B4018093B30148
:10788000292F97FF03C0512F591B252F220F28178F
:1078900010F4479801C0479A809113018823E1F6BC
:1078A0008091E00081608093E0001CDC80E090E04B
:1078B0001F910895FA01923049F0933061F09130B0
:1078C000F9F484E191E022E130E01EC086E291E02B
:1078D0002EE330E019C0882329F484E691E024E007
:1078E00030E012C0813029F488E691E022E230E0F5
:1078F0000BC0823029F48CE891E028E130E004C02C
:1079000080E090E020E030E091838083C901089519
:107910008093E9008091EB0081608093EB001092EE
:10792000ED006093EC004093ED008091EE00881F25
:107930008827881F08958091B70188238CF403C09D
:107940008EB38823B1F08091E80082FFF9CF809157
:10795000E8008B778093E80008958EB3882349F080
:107960008091E80080FFF9CF8091E8008E778093C6
:10797000E8000895EF92FF920F931F9345D04CD0EB
:1079800008ED10E0F80180818F7780838081806826
:10799000808380818F7D808319BC1EBA1092B501CF
:1079A00080EEE82EF12CF70180818B7F8083F80137
:1079B00080818160808380E060E042E0A9DFE1EEC9
:1079C000F0E080818E7F8083E2EEF0E08081816054
:1079D0008083808188608083F70180818E7F8083AF
:1079E000F8018081806180831F910F91FF90EF905B
:1079F0000895E7EDF0E08081816080838AE482BFB2
:107A000081E08093B601B6CFE8EDF0E080818E7F13
:107A100080831092E20008951092DA001092E10043
:107A200008951F920F920FB60F9211242F933F9338
:107A30004F935F936F937F938F939F93AF93BF9376
:107A4000EF93FF938091DA0080FF1BC08091D800F4
:107A500080FF17C08091DA008E7F8093DA008091DA
:107A6000D90080FF0BC080E189BD82E189BD09B4E6
:107A700000FEFDCF81E08EBB3BD203C019BC1EBA15
:107A800037D28091E10080FF17C08091E20080FF33
:107A900013C08091E2008E7F8093E2008091E2002B
:107AA00080618093E2008091D80080628093D8004A
:107AB00019BC85E08EBB1CD28091E10084FF2CC0F4
:107AC0008091E20084FF28C080E189BD82E189BD08
:107AD00009B400FEFDCF8091D8008F7D8093D8003F
:107AE0008091E1008F7E8093E1008091E2008F7EA3
:107AF0008093E2008091E20081608093E2008091B7
:107B0000B501882331F48091E30087FD02C081E054
:107B100001C084E08EBBECD18091E10083FF21C0E5
:107B20008091E20083FF1DC08091E100877F8093F8
:107B3000E10082E08EBB1092B5018091E1008E7F62
:107B40008093E1008091E2008E7F8093E20080913B
:107B5000E20080618093E20080E060E042E0D8DEF5
:107B6000C7D1FF91EF91BF91AF919F918F917F917D
:107B70006F915F914F913F912F910F900FBE0F909A
:107B80001F9018959C014091BD015091BE01461770
:107B9000570718F4F90190E044C06115710511F020
:107BA000AB01F8CF8091E8008E778093E80040E049
:107BB00050E0F0CF8EB3882309F444C0853009F437
:107BC00043C08091E80083FF02C081E00895809166
:107BD000E80082FD31C08091E80080FF22C08091E2
:107BE000F3009091F200782F60E0292F30E0262BEF
:107BF000372B07C081918093F100415050402F5F97
:107C00003F4F4115510519F02830310598F390E0A8
:107C10002830310509F491E08091E8008E77809357
:107C2000E8004115510531F6992321F605C08EB3C0
:107C3000882341F0853041F08091E80082FFF7CF42
:107C400080E0089582E0089583E008959C01611525
:107C5000710529F48091E8008B778093E800F901A1
:107C600026C08EB3882391F1853091F18091E80090
:107C700083FF02C081E008958091E80082FFF1CF88
:107C800006C08091F10081936150704059F02091BD
:107C9000F3008091F200322F20E090E0822B932BB2
:107CA000892B79F78091E8008B778093E800611544
:107CB0007105B9F605C08EB3882341F0853041F0D7
:107CC0008091E80080FFF7CF80E0089582E008957A
:107CD00083E008950F931F93DF93CF9300D0CDB728
:107CE000DEB7E7EBF1E08091F100819381E0EF3BBB
:107CF000F807C9F708DD8091E80083FFE4C08091B0
:107D0000B7019091B801953009F46DC0963040F4F8
:107D1000913081F1913070F0933009F0D4C02AC0D5
:107D2000983009F4A3C0993009F4B2C0963009F034
:107D3000CAC07CC0803809F4C6C0823809F0C3C00C
:107D40008091BB0187708093E9008091EB001092D5
:107D5000E9002091E800277F2093E80090E025E0EB
:107D6000969587952A95E1F781708093F10010929E
:107D7000F10087C0882319F0823009F0A4C08F7108
:107D8000823009F0A0C08091B901882331F520919B
:107D9000BB01277009F497C02093E9008091EB00A4
:107DA00080FF1BC0933021F48091EB00806213C0F0
:107DB0008091EB0080618093EB0081E090E002C055
:107DC000880F991F2A95E2F78093EA001092EA0043
:107DD0008091EB0088608093EB001092E900809125
:107DE000E800877F51C0882309F06DC01091B90168
:107DF0001F770FB7F8948091E800877F8093E800A1
:107E00009ADD8091E80080FFFCCF8091E3008078CC
:107E1000812B8093E30080688093E300112311F4A9
:107E200082E001C083E08EBB0FBF4DC0805882301E
:107E300008F049C08091B9019091BA016091BB01ED
:107E4000AE014F5F5F4F36DDBC01009709F43BC0C8
:107E50008091E800877F8093E80089819A8192DE93
:107E60008091E8008B778093E8002DC0803859F529
:107E70008091E800877F8093E8008091B50180932E
:107E8000F1008091E8008E778093E80054DD1BC0FC
:107E90008823C9F49091B9019230A8F48091E80048
:107EA000877F8093E8009093B50145DD8091B5010F
:107EB000882331F48091E30087FD02C081E001C096
:107EC00084E08EBB50DC8091E80083FF0AC0809183
:107ED000EB0080628093EB008091E800877F8093C5
:107EE000E8000F900F90CF91DF911F910F910895AF
:107EF00008951F938EB3882361F01091E9001092CA
:107F0000E9008091E80083FF01C0E4DE1770109360
:107F1000E9001F910895F999FECF92BD81BDF89AAD
:107F2000992780B50895262FF999FECF1FBA92BDE3
:107F300081BD20BD0FB6F894FA9AF99A0FBE01964A
:067F40000895F894FFCF44
:107F46004341544552494E41007700080000000065
:107F5600000008011201100102000008412341003F
:107F660001000201000109023E00020100803209FF
:107F7600040000010202010005240010010424028D
:107F8600040524060001070582030800FF09040111
:107F960000020A000000070504021000010705831D
:107FA6000210000104030904220341007200640068
:107FB600750069006E006F002000590075006E00A4
:107FC60020002000200020002000000018034100AF
:107FD60072006400750069006E006F0020004C009E
:067FE6004C004300000006
:040000030000700089
:00000001FF
