:100000000C9458010C94C4190C949D190C947619F5
:100010000C944F190C9480010C9480010C942819B5
:100020000C9480010C9480010C94E5150C945416EA
:100030000C9480010C9480010C9480010C9480013C
:100040000C9480010C9480010C9480010C9480012C
:100050000C9480010C9480010C9480010C94DE18A7
:100060000C9480010C94AC180C9486180C948001AC
:100070000C9480010C9480010C9480010C948001FC
:100080000C9480010C9480010C9480010C948001EC
:100090000C9480010C9480010C9480010C948001DC
:1000A0000C9480010C9480010C94800100407A1023
:1000B000F35A00A0724E18090010A5D4E80000E819
:1000C0007648170000E40B54020000CA9A3B000077
:1000D00000E1F505000080969800000040420F0006
:1000E0000000A08601000000102700000000E803C7
:1000F000000000006400000000000A000000000092
:100100000100000000002C76D888DC674F0823DF50
:10011000C1DFAE59E1B1B796E5E3E453C63AE65123
:10012000997696E8E6C28426EB898C9B62ED407C4A
:100130006FFCEFBC9C9F40F2BAA56FA5F490055AE6
:100140002AF75C936B6CF9676DC11BFCE0E40D470B
:10015000FEF520E6B500D0ED902E0300943577052E
:100160000080841E080000204E0A000000C80C33E6
:100170003333330F986E12831141EF8D2114893B75
:10018000E65516CFFEE6DB18D1844B381BF77C1DF5
:10019000901DA4BBE424203284725E228100C9F148
:1001A00024ECA1E53D2700000000240027002A00E0
:1001B0002D00300072756E2D6272696467650A00E9
:1001C0000A000A00070605040100080A0B0C0D09C5
:1001D000080B0002020201000904000001020200F3
:1001E0000005240010010524010101042402060574
:1001F00024060001070581031000400904010002E4
:100200000A000000070502024000000705830240C3
:1002100000000403090412010002EF02014041231F
:10022000418000010102030141726475696E6F2013
:100230004C4C430041726475696E6F2059756E00B5
:1002400000000000250028002B002E0031000404CF
:10025000040404030405020202020403020202026F
:100260000606060606060404020202040404080246
:10027000011040804010204080408008020401802E
:100280004020100201108010204040200000000299
:1002900000090F0000030401000C00000000000032
:1002A000000000000000000000000000EB19481FE3
:1002B00011241FBECFEFDAE0DEBFCDBF23E0AAEEF0
:1002C000B1E001C01D92A83FB207E1F711E0A0E044
:1002D000B1E0E2EBFCE402C005900D92AA3EB1074A
:1002E000D9F711E0C7E5D1E004C02197FE010E94D3
:1002F0003A24C635D107C9F70E94DF1A0C944C2660
:100300000C940000AF92BF92CF92DF92EF92FF92D7
:100310000F931F93CF93DF9300D0CDB7DEB75C016F
:10032000D12CC12CCA14DB04A0F040916D03509174
:100330006E0360916F0370917003E0918803F091F8
:1003400089038091840390918503099590E080E072
:1003500030C0E0918A03F0918B03809186039091E5
:10036000870309957B018C011E141F0410061106DA
:10037000F4F41A82198260917603709177036C0D00
:100380007D1DE0918203F09183039E012F5F3F4F1B
:10039000A5014C195D0980917E0390917F03099519
:1003A000009739F489819A81C80ED91EBBCF8CEF92
:1003B0009FEF0F900F90DF91CF911F910F91FF90C2
:1003C000EF90DF90CF90BF90AF9008958F929F9263
:1003D000AF92BF92CF92DF92EF92FF920F931F9353
:1003E000CF93DF9300D0CDB7DEB79C01260F371F28
:1003F00040917403509175034217530708F44CC0A1
:100400005B014C01D12CC12CCA14DB0418F090E024
:1004100080E033C0E0918A03F0918B0380918603E2
:100420009091870309957B018C011E141F0410060F
:1004300011060CF51A821982609178037091790384
:10044000C4018C0D9D1D680F791FE0918003F09110
:1004500081039E012F5F3F4FA5014C195D098091DB
:100460007E0390917F030995009739F489819A81E1
:10047000C80ED91EC9CF8CEF9FEF0F900F90DF9160
:10048000CF911F910F91FF90EF90DF90CF90BF9091
:10049000AF909F908F9008958FEF9FEFEECF1092C7
:1004A0008C0380914F0390915003DC01ED91FC91FE
:1004B0000488F589E02D099480914F0390915003B1
:1004C000009711F480E00895DC01ED91FC9106881D
:1004D000F789E02D09958130A9F780918C03089563
:1004E000E9E9F2E02491EAE7F2E03491EBE5F2E0A9
:1004F0009491992309F430C02223E9F021502F3040
:10050000D0F4E22FF0E0E957FD4F0C943A24B50205
:10051000B9029602AD02B1029B029B029B02BC0291
:10052000C202C602CA02D0029B02D40220918000FD
:100530002F7720938000E92FF0E0EE0FFF1FE05CA3
:10054000FD4FA591B4919FB7F894EC91811132C001
:1005500030953E233C939FBF0895209180002F7DCE
:10056000E8CF20918000277FE4CF24B52F7724BDEA
:10057000E2CF24B52F7DFBCF209190002F772093E1
:100580009000D9CF209190002F7DF9CF209190003D
:10059000277FF5CF2091C0002F772093C000CBCFCD
:1005A0002091C0002F7DF9CF2091C200277F20939A
:1005B000C200C1CF3E2BCECFFC0180913C028823EC
:1005C00011F13FB7F89482E08093E9002091F200A6
:1005D000822F90E01816190614F481E090E0882329
:1005E00039F0289844E640933B024091F100408363
:1005F000222339F02091F200211103C02BE6209331
:10060000E8003FBF08958FEF9FEF08952FB7F8944C
:1006100083E08093E9009091E800892F807295FF34
:1006200004C09091F20080E4891B2FBF089580914F
:10063000330281110DC082E080932F0284E0809309
:100640003002109232021092310281E08093330224
:100650008FE292E00895CF93DF931F92CDB7DEB77C
:100660006983DC01ED91FC910280F381E02D41E092
:1006700050E0BE016F5F7F4F09950F90DF91CF91E2
:10068000089583E08093E9008091F200882319F0B7
:100690008AE38093E80008950E94060390E008959D
:1006A000CF93DF931F92CDB7DEB7FC01848595858C
:1006B00097FD08C02FEF3FEF358724870F90DF911C
:1006C000CF910895CE0101960E94DC02019719F4A2
:1006D000898190E0F3CF8FEF9FEFF0CF0F931F93BF
:1006E000CF93DF931F92CDB7DEB78C01FC018485D9
:1006F000958597FF0BC0CE0101960E94DC02019701
:1007000071F4898190E0F80195878487F8018485E8
:1007100095850F90DF91CF911F910F9108958FEFE5
:100720009FEFF1CFFC018485958597FD0BC09FB7A6
:10073000F89482E08093E9008091F2009FBF90E0FE
:10074000019608959FB7F89482E08093E900809124
:10075000F2009FBF90E008954091290250912A0233
:10076000209127023091280242175307B4F4909148
:10077000E8009570E1F39091E80092FD19C0809334
:10078000F1008091290290912A0201968F73992796
:10079000892B19F48EEF8093E800809129029091C3
:1007A0002A02019690932A028093290281E00895FB
:1007B00080E00895EF92FF920F931F93CF93DF9302
:1007C000F82E192FE62E042F81E0860F880F0E9445
:1007D000AC0383E00E94AC03CF2DD12FEC0EFD2E95
:1007E000F11CCE15DF05B9F007FF13C0FE0184919F
:1007F0000E94AC03182F80E00E94AC038123219655
:100800008111EFCFDF91CF911F910F91FF90EF906A
:1008100008958881EDCF81E0F5CFDF92EF92FF92CE
:100820000F931F93CF93DF93D82E8A01EB017B01A7
:10083000E40EF51ECE15DF0559F0D7FE12C0FE01FD
:1008400084910E94AC0321968111F4CF0FEF1FEF2A
:10085000C801DF91CF911F910F91FF90EF90DF9032
:1008600008958881EECF0F931F93CF93DF931F924C
:10087000CDB7DEB782E0898342E450E060ED71E0FD
:1008800080E80E940D040E941703DC0112960D916E
:100890001C910115110589F0D801ED91FC910280A0
:1008A000F381E02DBE016F5F7F4FC801099597FD71
:1008B00004C0F80100851185ECCF89810F90DF918C
:1008C000CF911F910F910895615030F02091F10068
:1008D000FC0120830196F8CF289884E680933B02A0
:1008E0000895CF93DF93E901DC018D919C91DC01A8
:1008F000ED91FC910280F381E02D09959983888325
:10090000892B29F090E080E0DF91CF9108958AEF64
:100910009FEFFACF0895EF92FF920F931F93CF931B
:10092000DF938C017B01D0E0C0E0F701EC0FFD1FED
:100930006491662361F0D801ED91FC910190F08102
:10094000E02DC8010995892B11F02196EECFCE013B
:10095000DF91CF911F910F91FF90EF900895AF928B
:10096000BF92CF92DF92EF92FF920F931F93CF939C
:10097000DF936C017B018B01040F151FEB015E01FE
:10098000AE18BF08C017D10759F06991D601ED9193
:10099000FC910190F081E02DC6010995892B79F732
:1009A000C501DF91CF911F910F91FF90EF90DF90E4
:1009B000CF90BF90AF900895FC01538D448D252FAB
:1009C00030E0842F90E0821B930B541710F0CF96E9
:1009D000089501970895FC01918D828D981761F01B
:1009E000A28DAE0FBF2FB11D5D968C91928D9F5F32
:1009F0009F73928F90E008958FEF9FEF0895FC0111
:100A0000918D828D981731F0828DE80FF11D858DC3
:100A100090E008958FEF9FEF0895FC01918D228D56
:100A2000892F90E0805C9F4F821B91098F739927DB
:100A3000089589E992E00E940D0521E0892B09F4CF
:100A400020E0822F089580E090E0892B29F00E9419
:100A5000190581110C9400000895FC01A48DA80FC4
:100A6000B92FB11DA35ABF4F2C91848D90E00196F0
:100A70008F739927848FA689B7892C93A089B18910
:100A80008C9182748C93938D848D981306C0028808
:100A9000F389E02D80818F7D80830895EF92FF920E
:100AA0000F931F93CF93DF93EC0181E0888F9B8D91
:100AB0008C8D981319C0E889F989808185FF14C04D
:100AC0009FB7F894EE89FF896083E889F98980816E
:100AD000827480839FBF81E090E0DF91CF911F916E
:100AE0000F91FF90EF900895F62E0B8D10E00F5FA1
:100AF0001F4F0F731127E02E8C8D8E110CC00FB677
:100B000007FCFACFE889F989808185FFF5CFCE010E
:100B10000E942D05F1CFEB8DEC0FFD2FF11DE35A57
:100B2000FF4FF0829FB7F8940B8FEA89FB89808191
:100B30008062CFCFCF93DF93EC01888D8823B9F00B
:100B4000AA89BB89E889F9898C9185FD03C08081D8
:100B500086FD0DC00FB607FCF7CF8C9185FFF2CF55
:100B6000808185FFEDCFCE010E942D05E9CFDF9179
:100B7000CF9108953FB7F8948091F1019091F201DF
:100B8000A091F301B091F40126B5A89B05C02F3FB9
:100B900019F00196A11DB11D3FBFBA2FA92F982FA3
:100BA0008827BC01CD01620F711D811D911D42E09E
:100BB000660F771F881F991F4A95D1F708958F9266
:100BC0009F92AF92BF92CF92DF92EF92FF924B0132
:100BD0005C010E94BA056B017C010E94BA056C1988
:100BE0007D098E099F09683E734081059105A8F330
:100BF00021E0821A9108A108B10888EEC80E83E0AE
:100C0000D81EE11CF11C81149104A104B10429F740
:100C1000FF90EF90DF90CF90BF90AF909F908F901C
:100C200008958F929F92AF92BF92CF92DF92EF92F0
:100C3000FF920F931F93CF93DF936C017B018A0187
:100C400080911501882309F45CC080913C028823BF
:100C500009F457C080912E0280FF05C08091E0000A
:100C600082608093E000E801B12C8AEFA82E93E027
:100C7000892E2AE3922E209711F4BB20D9F10E94ED
:100C8000060381110AC0AA94AA20D9F161E070E09C
:100C900080E090E00E94DF05EECF8C171D0611F07A
:100CA0000CF08C2F9FB7F8948092E9002091E80017
:100CB00025FD02C09FBFDFCF282F30E0C21BD30B22
:100CC000F701815020F041914093F100FACFE20EFC
:100CD000F31EBB2021F09092E800B12CEBCF809165
:100CE000E80085FDE7CF9092E800BB24B3942097FD
:100CF00009F3F3CF5D9884E680932D021016110658
:100D00003CF081E090E0F6019383828310E000E004
:100D1000C801DF91CF911F910F91FF90EF90DF906D
:100D2000CF90BF90AF909F908F9008952FB7F89479
:100D30006091ED017091EE018091EF019091F001D1
:100D40002FBF0895CF92DF92EF92FF92C0903E03A3
:100D5000D0903F03E0904003F0904103C0923A03EB
:100D6000D0923B03E0923C03F0923D030E94960632
:100D700060933E0370933F0380934003909341033D
:100D8000AB01BC014C195D096E097F098091EA0134
:100D90009091EB01FC01EE0FFF1FEE0FFF1FE550DE
:100DA000FE4F40835183628373834093F7015093D6
:100DB000F8016093F9017093FA0101968A30910568
:100DC00094F49093EB018093EA0180912302909137
:100DD000240201969093240280932302FF90EF90C7
:100DE000DF90CF9008951092EB011092EA01EDCFC1
:100DF000CF92DF92EF92FF92CF93DF93EC016A01E3
:100E00007B01EC81FD81309781F00995C60ED71EDC
:100E1000E81EF91EC882D982EA82FB82DF91CF9157
:100E2000FF90EF90DF90CF9008950E949606EECF4E
:100E3000CF92DF92EF92FF92DC011496ED91FC913C
:100E40001597CD90DD90ED90FC90309771F009955D
:100E5000A7019601261B370B480B590BCA01B90194
:100E6000FF90EF90DF90CF9008950E949606F0CF0C
:100E700008950F931F93CF93DF93EC01B0E0A0E0B0
:100E8000E881F9818D010F5F1F4FCB018E1B9F0BF6
:100E90008017910758F1822F8F7797E056954795E5
:100EA000379527959A95D1F72115310541055105BB
:100EB00009F08068EA0FFB1F808321153105410589
:100EC000510569F488819981800F911F99838883E6
:100ED00090E080E0DF91CF911F910F910895D801AC
:100EE0000430110569F68EEF9FEFF4CF8FEF9FEF7F
:100EF000F1CF4F925F926F927F929F92AF92BF928B
:100F0000CF92DF92EF92FF920F931F93CF93DF93D5
:100F10006C018A01DA011D921D921D921C92139799
:100F2000DC01ED91FC917B01EE1AFF0A5F01D0E03C
:100F3000C0E0412C512C320143942196EC16FD0661
:100F4000E0F1C530D105E1F1D5019D905D01A92DFC
:100F5000AF77B0E0A30192010E94C922D8012D9180
:100F60003D914D915C911397260F371F481F591FD4
:100F70002D933D934D935C93139787E0440C551C40
:100F8000661C771C8A95D1F797FCD7CFEC0FFD1F15
:100F9000D601ED93FC9390E080E0DF91CF911F911B
:100FA0000F91FF90EF90DF90CF90BF90AF909F9008
:100FB0007F906F905F904F9008958FEF9FEFEDCFF0
:100FC0008EEF9FEFEACFEF92FF920F931F93CF9395
:100FD000DF9300D000D000D0CDB7DEB7D9017C01BF
:100FE000E60EF71E8E159F0589F1FC013191FE83F7
:100FF000ED83832F807F90E064E0959587956A95D7
:10100000E1F784179507E1F533FB332730F93C937B
:10101000AE014F5F5F4FB701CE0105960E94790781
:10102000009709F549815A816B817C8142305105D5
:101030006105710541F5ED81FE81EE1AFF0A22E09E
:10104000E216F10430F4F801118210828FEF9FEF65
:101050000AC0208130E0322F22274181240F311D28
:10106000F8013183208326960FB6F894DEBF0FBEB9
:10107000CDBFDF91CF911F910F91FF90EF90089519
:1010800087EF9FEFF0CF88EF9FEFEDCFFC01A081BE
:10109000B1816A1B7B0B6230710568F05C93A081A3
:1010A000B18111964C9380819181029691838083C6
:1010B00090E080E008958FEF9FEF0895AF92BF9288
:1010C000CF92DF92EF92FF920F931F93CF93DF9314
:1010D00000D0CDB7DEB77C01E60EF71EE1E0F0E010
:1010E0002630310511F0F0E0E0E0EE0FFF1F74E074
:1010F000220F331F7A95E1F7E22BE816F90669F122
:101100006A015C01DC01ED93BA83A98322E030E03F
:1011100040E050E0B701CE0101960E9439070097E8
:1011200079F4A801B701CE0101960E944608009704
:1011300039F429813A812A193B09F6013183208348
:101140000F900F90DF91CF911F910F91FF90EF9033
:10115000DF90CF90BF90AF9008958FEF9FEFF0CFCB
:101160002F923F924F925F926F927F928F929F92B7
:10117000AF92BF92CF92DF92EF92FF920F931F93A5
:10118000CF93DF93CDB7DEB765970FB6F894DEBF88
:101190000FBECDBF1C013B012A011F861E86D10157
:1011A0001D921C9261E070E090E080E00E94E601F8
:1011B0008C3FBFEF9B0709F47FC0009709F04CC03C
:1011C000E0917803F0917903D10111961C921E925F
:1011D0008081807F90E074E0959587957A95E1F71E
:1011E0008D939C938930910579F04CF40297069782
:1011F00058F0F1011182108287EF9FEF2DC08B30E4
:10120000910511F00D97A9F719821A821B821C8291
:1012100010E000E04801FFEF8F1A9F0A61E070E0E4
:10122000C4010E94E6010097B9F4609178037091BF
:1012300079036F5F7F4F79876887680D791DAE01ED
:101240004F5F5F4FCE0108960E9479078E3F2FEFC8
:101250009207D9F489EF9FEF65960FB6F894DEBF39
:101260000FBECDBFDF91CF911F910F91FF90EF90F7
:10127000DF90CF90BF90AF909F908F907F906F90B6
:101280005F904F903F902F900895009781F569816E
:101290007A818B819C81611571058105910589F5A4
:1012A00089819A8101964E855F85840F951FDC01A7
:1012B000A80DB91DBF87AE87F1018081918100978C
:1012C00009F466C18530910509F410C108F503974A
:1012D00041F14114510409F453C1D1018D919C9104
:1012E0004816590609F057C190E080E0B5CF198241
:1012F0001A821B821C8284018F3F980709F48ACFCF
:10130000ABCFC80102960E94E601009749F2A4CF34
:101310008630910509F416C10D97D9F61092710324
:10132000D8CF0091740310917503E0917803F09188
:101330007903FD87EC870E0F1F1FE017F10709F4F3
:1013400024C18191FD87EC87982F907F903309F01D
:1013500053CF982F91709B83867090E095958795D9
:1013600088248394912C813039F0912C812C823007
:1013700019F452E0852E912CAE01485F5F4FB80101
:10138000CE010C960E947907009709F065CFC884BA
:10139000D984EA84FB84F2E0CF16D104E104F1049D
:1013A00008F4A1C0EC85FD850E1B1F0B012E000C5F
:1013B000220B330B0C151D052E053F0508F4E5C067
:1013C00022E0C216D10408F4E0C0808190E0982F9A
:1013D00088272181820F911D9F012E5F3F4F3D87FE
:1013E0002C87009709F06BC01B8A1A8AEC0DFD1D33
:1013F000998B888B8114910409F46FC0AC85BD85ED
:10140000CF018A1B9B0B029708F4BFC08C9190E020
:10141000982F882711962C911197AC01420F511DDE
:101420005D8B4C8B1296BD87AC878C859D85E81BA8
:10143000F90BFF83EE83EF2B09F052C01D821C8253
:10144000E0917A03F0917B033097A1F060917C03E7
:1014500070917D03A82C9A828982BA80CB80DC802F
:10146000ED80FE800F81288939894A895B898BE666
:1014700093E009958114910409F42BCF24E030E026
:101480008A94892811F025E030E060917203709110
:1014900073030C891D89AE01485F5F4F809176030D
:1014A000909177030E945E08009709F0D5CE888559
:1014B00099850E948201009709F40BCFCDCEA60139
:1014C000425051094817590708F45FC03B8B2A8BDB
:1014D000280F391F3D872C8789CF1D8A1C8AA5CFED
:1014E0009D838C83ADCF88EF9FEFB6CE6091740360
:1014F000709175038E01085F1F4F9E01245F3F4F5F
:1015000045E050E080917803909179030E94E307D1
:10151000009709F0A1CE088519856091720370913A
:10152000730326E030E0AE014F5F5F4F809176039A
:10153000909177030E945E08009709F08DCE898113
:101540009A81B7CF60917403709175038E01085F23
:101550001F4F9E01245F3F4F46E050E0809178038B
:10156000909179030E94E307009709F075CE0885F2
:101570001985609172037091730327E030E0D3CF37
:101580006114710409F0A9CEAFCE8FEF9FEF64CE46
:1015900041145104A9F3E0918A03F0918B038091E7
:1015A00086039091870309951616170618061906E3
:1015B0000CF09ACE6114710409F4F1CDEE85FF852B
:1015C000E615F70508F4EBCD8FCE4F925F926F9240
:1015D0007F928F929F92AF92BF92CF92DF92EF92C3
:1015E000FF920F931F93CF93DF936B015901FC017F
:1015F000C081D181EC82FD820E831F837B01E40ECA
:10160000F51E8B0148018C189D080E151F0511F160
:101610000E949606688779878A879B87E881F98187
:101620000284F385E02DCE01099597FF2DC00E941D
:101630009606488459846A847B84641975098609EE
:1016400097094C805D806E807F80641575058605E6
:10165000970520F3F5019182808290E080E089284F
:1016600011F48BEF9FEFDF91CF911F910F91FF90BE
:10167000EF90DF90CF90BF90AF909F908F907F9032
:101680006F905F904F900895F80181938F01BACFCA
:101690000895FB012785FC012787FB012685FC01B6
:1016A00026870895FC018785089590E080E00895DD
:1016B000CF93DF93EC018D819E81DC01ED91FC9154
:1016C0000084F185E02D09951816190654F48D81D2
:1016D0009E81DC01ED91FC910284F385E02D09955A
:1016E000EACFDF91CF9108958F929F92AF92BF92F0
:1016F000CF92DF92EF92FF92CF93DF93EC016B01D9
:101700000E9496064B015C01F12CE12C8D819E819B
:10171000DC01ED91FC910284F385E02D099597FFA2
:101720000DC00E949606681979098A099B096C15F3
:101730007D058E059F0550F38FEF9FEFDF91CF91D1
:10174000FF90EF90DF90CF90BF90AF909F908F90E1
:101750000895FC01238134812627022E2295207FC3
:101760002025032E322F22952F7002262695322710
:101770002327220F220F220F20253483238308954D
:101780002F923F924F925F926F927F928F929F9291
:10179000AF92BF92CF92DF92EF92FF920F931F937F
:1017A000CF93DF93CDB7DEB72A970FB6F894DEBF9D
:1017B0000FBECDBF9A8789875B01290137011A01C6
:1017C000200E311E3A82198288248A94982C9A011C
:1017D000260F371F3E832D83C801840D951D9887E2
:1017E0008F83A985BA8518968C91B981B81708F0AE
:1017F00040C1E985FA859482838285819681DC01E6
:10180000ED91FC910190F081E02D6FEF09956FEF64
:1018100089859A850E94A90BE985FA85858196813B
:10182000DC01ED91FC910190F081E02DA985BA8554
:101830006C910995E985FA856081CF010E94A90B19
:10184000A985BA8515968D919C91DC01ED91FC914D
:101850000190F081E02D6A8109956A8189859A85D8
:101860000E94A90BE985FA8585819681DC01ED91BD
:10187000FC910190F081E02D622D0995622D898502
:101880009A850E94A90B8501E985FA858581968153
:10189000D8016D918D01DC01ED91FC910190F081F9
:1018A000E02D0995F8013197608189859A850E941C
:1018B000A90BED81FE810E171F0731F78201A98563
:1018C000BA8515968D919C91DC01ED91FC9101906A
:1018D000F081E02D2F8138852017310761F0D80184
:1018E0006D918D010995F8013197608189859A85FF
:1018F0000E94A90BE4CFA985BA8514966C9109952D
:10190000E985FA8585819681DC01ED91FC91019054
:10191000F081E02DA985BA8513966C91099568EC44
:1019200070E089859A850E94740B8F3F910509F0BC
:1019300092C0E985FA85948283826FEFCF010E947D
:10194000A90B65E070E089859A850E94740BA985D2
:10195000BA856C916817190609F07DC0CD010E9407
:10196000A90B6AE070E089859A850E94740B7C015E
:1019700097FD71C0682F89859A850E94A90B6AE03E
:1019800070E089859A850E94740B8C0197FD63C075
:10199000682F89859A850E94A90BEC821B82EB81B6
:1019A000FC810E0F1F1FF12CE12C65E070E0898592
:1019B0009A850E151F05A1F0EC14FD0489F00E9414
:1019C000740B97FD09C0F301EE0DFF1D8083682F96
:1019D00089859A850E94A90BFFEFEF1AFF0AE5CFD0
:1019E0000E94740B7C0197FD36C065E070E089852C
:1019F0009A850E94740B97FD2EC0FE2CEE248E0D4E
:101A00009F1DA985BA8513962D913C911497821735
:101A1000930709F58C918F5F8C93C801C016D1068E
:101A200008F4C6012A960FB6F894DEBF0FBECDBFEC
:101A3000DF91CF911F910F91FF90EF90DF90CF90AA
:101A4000BF90AF909F908F907F906F905F904F90DE
:101A50003F902F900895B981BF5FB98364E670E02D
:101A600080E090E00E94DF0589859A850E94580BEE
:101A7000B8CE8FEF9FEFD6CFAF92BF92CF92DF92CB
:101A8000EF92FF920F931F93CF93DF9300D0CDB7C8
:101A9000DEB7FC019B015A018785882301F18CE6A2
:101AA000898386858A83D12CC12CF12CE12C8A0173
:101AB00042E050E0BE016F5F7F4F848595850E94B4
:101AC000C00BC5010F900F90DF91CF911F910F9127
:101AD000FF90EF90DF90CF90BF90AF900895B12C22
:101AE000A12CEFCFCF92DF92EF92FF920F931F9333
:101AF0006801790110E000E030E020E00E94C00BB6
:101B00001F910F91FF90EF90DF90CF900895EF928B
:101B1000FF920F931F93CF93DF9300D01F92CDB707
:101B2000DEB7DC011F962C911F97222301F17C0167
:101B3000ED91FC910084F185E02D0995892B11F53B
:101B40008CE48983F70186858A8301E010E09E0199
:101B50002D5F3F4F42E050E0BE016F5F7F4F8485B5
:101B600095850E94720D81E09B81913009F080E0A3
:101B70000F900F900F90DF91CF911F910F91FF90D9
:101B8000EF90089581E0F4CFEF92FF920F931F93AF
:101B9000CF93DF9300D01F92CDB7DEB7FC01208931
:101BA000211118C07C01118A8BE4898380E48B8326
:101BB00086858A839F012E5E3F4F00E410E043E05C
:101BC00050E0BE016F5F7F4F848595850E94720D46
:101BD000F701808B0F900F900F90DF91CF911F91A5
:101BE0000F91FF90EF900895CF93DF93EC010E9447
:101BF000C40D8889882341F08989C80FD11D8A893D
:101C000090E0DF91CF9108958FEF9FEFFACFCF92C1
:101C1000DF92EF92FF920F931F93CF93DF93EC012C
:101C20006A017B0110E000E08889811106C0CE01C5
:101C30000E94C40D8889882399F0E98981E08E0F7C
:101C4000898B0F5F1F4FEC0FFD2FF11D8289F7016C
:101C500081937F0188898150888B0C151D0520F3A5
:101C6000C801DF91CF911F910F91FF90EF90DF900E
:101C7000CF900895CF93DF93EC010E94C40D888923
:101C8000882369F08150888B898991E0980F998B1E
:101C9000C80FD11D8A8990E0DF91CF9108958FEF11
:101CA0009FEFFACFCF93DF93EC010E94C40D888998
:101CB00090E0DF91CF910895CF92DF92EF92FF9263
:101CC0000F931F93D12CC12CF12CE12C10E000E0DC
:101CD00030E020E00E94C00B1F910F91FF90EF9029
:101CE000DF90CF900895CF93DF9300D01F92CDB7B0
:101CF000DEB7FC01278590E080E0222381F08CE6AE
:101D0000898386858A836B8343E050E0BE016F5FE1
:101D10007F4F848595850E945C0E81E090E00F9056
:101D20000F900F90DF91CF9108950F931F93CF9352
:101D3000DF9300D0CDB7DEB78C01FC018785882307
:101D400069F08AE6898386858A8342E050E0BE0195
:101D50006F5F7F4F848595850E945C0EF801178622
:101D6000108A118A0F900F90DF91CF911F910F91E0
:101D700008958F929F92AF92BF92EF92FF920F932E
:101D80001F93CF93DF93CDB7DEB7A1970FB6F8942B
:101D9000DEBF0FBECDBF7C01FA01CB0119A22230FC
:101DA00008F42AE08E010F5D1F4F822E912CB12C7A
:101DB000A12CBF01A50194010E94F923F901CA01D8
:101DC0006A3074F5605DD8016E938D01232B242B4E
:101DD000252B79F790E080E0109789F0FD010190C4
:101DE0000020E9F73197AF014A1B5B0BD701ED915A
:101DF000FC910280F381E02DB801C7010995A196FD
:101E00000FB6F894DEBF0FBECDBFDF91CF911F910B
:101E10000F91FF90EF90BF90AF909F908F9008959B
:101E2000695CD1CF8F929F92AF92BF92CF92DF9297
:101E3000EF92FF920F931F93CF93DF937C01EB01FF
:101E40006C0182E0C80ED11C4701E5E08E0E911CAA
:101E500010E000E0F60141916F0150E070E060E0B9
:101E60002AE0CE010E94B90E5C01E881F98101905F
:101E7000F081E02D6EE2CE0109958A0D9B1D080FC1
:101E8000191FC814D90431F7F701458150E070E0FB
:101E900060E02AE0CE010E94B90E800F911FDF9111
:101EA000CF911F910F91FF90EF90DF90CF90BF9057
:101EB000AF909F908F900895DC0160E070E0CB01BF
:101EC000109709F40895FD0101900020E9F731977A
:101ED000EA1BFB0BB9F3BF01CD010895AF92BF928E
:101EE000CF92DF92EF92FF920F931F93CF93DF93E6
:101EF00000D000D000D01F92CDB7DEB75C019B01AF
:101F000083E489835A834B83FB0101900020E9F726
:101F100031978F01061B170BCC24C394D12CCE0113
:101F200006967C0143E050E0BE016F5F7F4FD50114
:101F30001C968D919C910E94C00B892BB9F18E81CA
:101F4000F501868793E69C838D8301E010E09E0176
:101F5000295F3F4F42E050E0BE016C5F7F4FD501EB
:101F60001C968D919C910E94720D8F81882339F06F
:101F700061E070E080E090E00E94DF05E6CF81E064
:101F8000F50187870190F081E02D0688F789E02D23
:101F9000C501099581111DC0D501ED91FC91048801
:101FA000F589E02DC5010995F501168690E080E0E0
:101FB00027960FB6F894DEBF0FBECDBFDF91CF914D
:101FC0001F910F91FF90EF90DF90CF90BF90AF9057
:101FD000089581E090E0ECCF0F931F93CF93DF93B0
:101FE000EC012115310591F088819981681B790BED
:101FF0006217730790F08901BA01A9010E943C267B
:1020000028813981200F311F3983288390E080E0B7
:10201000DF91CF911F910F9108958FEF9FEFF8CF30
:10202000CF92DF92EF92FF920F931F93CF93DF93A4
:10203000EC018B0169017A01A9010E944608009711
:1020400071F49601A701B801CE01DF91CF911F91E4
:102050000F91FF90EF90DF90CF900C94EC0FDF91F9
:10206000CF911F910F91FF90EF90DF90CF90089547
:102070003F924F925F926F927F928F929F92AF9218
:10208000BF92CF92DF92EF92FF920F931F93CF9365
:10209000DF9300D0CDB7DEB7FB0180809180FC01DB
:1020A00000811181F40101900020E9F731977F014F
:1020B000E818F9080E945C02382E882309F45EC0F3
:1020C000A0904B03B0904C03C0904D03D0904E03B2
:1020D000C8010E945C0F2B013C01E0918803F09144
:1020E0008903B601A5018091860390918703099524
:1020F0000091720310917303C0907603D090770320
:10210000DA82C9820C0D1D1DC2010296970150E0B2
:1021100040E0280F391F411D511D0C151D0509F404
:1021200042C080E3F601808389819A8101969A8377
:102130008983B801CE0101960E9439070097A9F55D
:10214000A3019201B801CE0101960E9410100097E0
:1021500061F59701A401B801CE0101960E94EC0F30
:10216000009719F589819A818C199D090E94820135
:102170000097D9F41092900310928F03832D0F9043
:102180000F90DF91CF911F910F91FF90EF90DF9013
:10219000CF90BF90AF909F908F907F906F905F9007
:1021A0004F903F9008958FEF9FEF9093900380930F
:1021B0008F030E944F02312CE1CF3F924F925F92EA
:1021C0006F927F928F929F92AF92BF92CF92DF9247
:1021D000EF92FF920F931F93CF93DF93CDB7DEB7AC
:1021E000E5970FB6F894DEBF0FBECDBF96E0492E3F
:1021F000512C0E945C0281110E944F0280914F037A
:102200009091500390935E0380935D03409153033C
:10221000509154036091510370915203DC01ED9190
:10222000FC910088F189E02D0995181619060CF724
:102230008FE0ECE1F1E0DE015F9601900D928A956E
:10224000E1F7809048039090490330904A0386E874
:1022500091E00E945C0F6F8F78A389A39AA38BE90A
:1022600091E00E945C0F6EA37FA388A799A784EAE0
:1022700091E00E945C0F6AA77BA78CA79DA7409165
:102280004B0350914C0360914D0370914E03E090CD
:102290005503F09056039CA28BA23DA28FE0FE0155
:1022A0007F96DE01509601900D928A95E1F7E091BC
:1022B0008803F091890380918603909187030995A3
:1022C0009401AEEEB2E00E940B23AB01BC0140933F
:1022D0006D0350936E0360936F0370937003E091EE
:1022E0008803F09189038091840390918503099577
:1022F0001092710350928E0340928D0300917203ED
:1023000010917303C0907603D09077038FE0FE01A5
:102310007096DE01119601900D928A95E1F7288959
:102320003989AF88B88C6B8C7C8CDFA6CEA60C0D5F
:102330001D1D2E5F3F4F50E040E0265F3F4F4F4F47
:102340005F4FE114F10461F0F701808191816781B1
:102350007085860F971F0496280F391F411D511D48
:10236000A114B10479F0C5010296280F391F411D4F
:10237000511D6114710431F0C3010296280F391FF9
:10238000411D511DC016D10609F47DC180E1D60161
:102390008C938EA59FA501969FA78EA7B801CE010D
:1023A0008E960E943907009709F008C185EB91E0ED
:1023B0000E945C0F9B01AC01B801CE018E960E9479
:1023C0001010009709F0FAC0EEA5FFA5E017F1077D
:1023D00009F459C184E08083EEA5FFA59F012F5F1A
:1023E0003F4F3FA72EA7432D50E0440F551FE11448
:1023F000F10489F0D70114968C911497880F880FF7
:10240000880F4460842B8F7D16964C91B0E24B9FD1
:10241000A0011124482BA114B10429F06114710406
:1024200009F0A6C040682017310709F42CC1418388
:102430008EA59FA501969FA78EA7A401B801CE01E6
:102440008E960E944608009709F0B8C029813A810B
:102450004B815C81B801CE018E960E9410100097CE
:1024600009F0ACC0E114F10409F084C0AB28D1F04C
:10247000288539854A855B85B801CE018E960E94F4
:102480001010009709F09AC0672861F02C853D85EF
:102490004E855F85B801CE018E960E941010009780
:1024A00009F08CC08EA59FA58C199D090E94820100
:1024B000009709F083C01DAA1CAA42E050E070E01A
:1024C00060E0CE01C4960E94B008009709F076C083
:1024D0008CA99DA9029709F0CFC0009174031091B7
:1024E0007503E0917803F0917903FBABEAAB0E0F33
:1024F0001F1FE017F10709F4C6C08191FBABEAABDF
:10250000807F803209F0ACC0AE01425D5F4FB80100
:10251000CE01C2960E947907009709F04FC08EA5A0
:102520009FA5A8A9B9A90297A105B10509F095C071
:10253000EAA9FBA9E017F10709F4A5C0CF010196AC
:102540009BAB8AAB8017910709F49DC081813296BD
:10255000FBABEAAB823009F46FC0A8F58823E1F148
:10256000813009F462C050928E0340928D0338C0CE
:10257000406C59CFF7012081318142815381B801EC
:10258000CE018E960E9410100097C1F4D7011796C5
:102590004D915C91B801CE018E960E94460800973D
:1025A00069F4F7012781308541855285B801CE0154
:1025B0008E960E94EC0F009709F458CF90939003E9
:1025C00080938F0356C0843009F440C0C0F1853039
:1025D00051F685E090E02BC010928E0310928D038F
:1025E00080918D0390918E03892BE9F510929003D1
:1025F00010928F0381E080938C03E5960FB6F894D8
:10260000DEBF0FBECDBFDF91CF911F910F91FF9025
:10261000EF90DF90CF90BF90AF909F908F907F9082
:102620006F905F904F903F90089581E090E090937D
:102630008E0380938D03D4CF82E090E0F8CFA3E0A7
:10264000B0E0B0938E03A0938D03CACFE4E0F0E036
:10265000F0938E03E0938D03C3CF88EF9FEFAECF4F
:1026600087EF9FEFABCFA6EFBFEFB0939003A093A0
:102670008F030E944F02BDCDE7EFFFEFF093900371
:10268000E0938F03F6CF8FEF9FEF98CFFC0180810F
:1026900091810C94DC240F931F93CF93DF93EC0173
:1026A00088819981009759F02A813B812617370745
:1026B00030F081E0DF91CF911F910F9108958B0150
:1026C0006F5F7F4F0E946525009759F0998388833B
:1026D0001B830A832C813D81232B59F7FC01108237
:1026E000E8CF80E0E7CFEF92FF920F931F93CF9355
:1026F000DF93EC01198218821B821A821D821C82D0
:1027000061157105E1F08B01FB0101900020E9F7F3
:1027100031977F01E61AF70AB7010E944B1328810F
:102720003981811113C02115310519F0C9010E94A9
:10273000DC24198218821D821C821B821A82DF917E
:10274000CF911F910F91FF90EF900895FD82EC8241
:10275000B801C901DF91CF911F910F91FF90EF90C8
:102760000C9445264F925F926F927F928F929F9228
:10277000AF92BF92CF92DF92EF92FF920F931F938F
:10278000CF93DF93CDB7DEB769970FB6F894DEBF6E
:102790000FBECDBF4B0129013A01AB8ABC8ACD8A5D
:1027A000DE8AEF8AF88E098FCDB6DEB60E891F89D4
:1027B000A88CB98CC90101962DB73EB7281B390BDF
:1027C0000FB6F8943EBF0FBE2DBF8DB79EB70196D2
:1027D0007C01A201B3010E943C264E0C5F1CD20179
:1027E0001C920115110521F0F801EA0DFB1D108264
:1027F000D4011496ED91FC911597309739F195011C
:10280000A801B7018D919C9109950FB6F894DEBE91
:102810000FBECDBE0FB6F894DEBE0FBECDBE69961C
:102820000FB6F894DEBF0FBECDBFDF91CF911F91E1
:102830000F91FF90EF90DF90CF90BF90AF909F905F
:102840008F907F906F905F904F900895F4018281F8
:102850009381892BD1F2B701CE0107960E947313A1
:1028600063EE71E0CE010D960E9473130115110500
:1028700009F1B801CE0101960E9473138D859E85E2
:10288000009769F169817A816115710531F14F8590
:1028900058892D813E8142175307F8F00E94452642
:1028A0008D819E819A8B898B1E821D82CE0101961D
:1028B0000E944613D4011296ED91FC91BE01635F14
:1028C0007F4FCE0107960995CE010D960E944613C3
:1028D000CE0107960E94461398CF0E94DC2489817E
:1028E0009A819E878D878B819C81988B8F878D8124
:1028F0009E819A8B898B1A8219821C821B82D4CF6B
:10290000EF92FF920F931F93CF93DF93EC017B0124
:10291000FB0101900020E9F731978F01061B170B8F
:10292000B8010E944B1328813981811113C02115F0
:10293000310519F0C9010E94DC24198218821D8218
:102940001C821B821A82DF91CF911F910F91FF9001
:10295000EF9008951D830C83B701C901DF91CF91DA
:102960001F910F91FF90EF900C944526EF92FF92EC
:102970000F931F93CF93DF936115710541F480E0AE
:10298000DF91CF911F910F91FF90EF900895411526
:102990005105B1F07B01EC010C811D81040F151F65
:1029A000B8010E944B13882351F3288139818C810F
:1029B0009D81B701820F931F0E9445261D830C83C2
:1029C00081E0DECFCF93DF9300D0CDB7DEB72EE22C
:1029D00029831A8241E050E0BE016F5F7F4F0E9461
:1029E000B6140F900F90DF91CF910895EF92FF9260
:1029F0000F931F93CF93DF93CDB7DEB764970FB6D6
:102A0000F894DEBF0FBECDBF7C01CB01BA018E01B1
:102A10000F5F1F4F22E044E00E94801FFC010190E5
:102A20000020E9F73197AF01481B590BBC01C701E2
:102A30000E94B61464960FB6F894DEBF0FBECDBFE9
:102A4000DF91CF911F910F91FF90EF900895EF923A
:102A5000FF920F931F93CF93DF93CDB7DEB72E97DF
:102A60000FB6F894DEBF0FBECDBF7C01CB01BA011B
:102A70002AE08E010F5F1F4FA8010E94A91FF801D5
:102A800001900020E9F73197AF01401B510BB801CD
:102A9000C7010E94B6142E960FB6F894DEBF0FBE83
:102AA000CDBFDF91CF911F910F91FF90EF900895CF
:102AB000EF92FF920F931F93CF93DF9300D000D03C
:102AC000CDB7DEB77C01862F4AE08E010F5F1F4F26
:102AD000B80190E00E949E1FF80101900020E9F7E4
:102AE0003197AF01401B510BB801C7010E94B614CA
:102AF0000F900F900F900F90DF91CF911F910F913A
:102B0000FF90EF900895CF92DF92EF92FF920F9394
:102B10001F93CF93DF9300D000D000D0CDB7DEB7A6
:102B20007C018B016A0163EE71E0CE0101960E9487
:102B3000731362E170E0CE0101960E944B13D8013D
:102B400012966C91CE0101960E945815CE01019605
:102B50000E94E214F8016381CE0101960E9458158B
:102B6000CE0101960E94E214D80114966C91CE0118
:102B700001960E945815CE0101960E94E214F801B8
:102B80006581CE0101960E94581569817A81D7012D
:102B9000ED91FC910088F189E02DA601C70109950E
:102BA0008C01CE0101960E944613C80126960FB6ED
:102BB000F894DEBF0FBECDBFDF91CF911F910F9173
:102BC000FF90EF90DF90CF9008951F920F920FB675
:102BD0000F9211248F939F938091E1009091E100D7
:102BE000937F9093E10083FF0FC01092E90091E082
:102BF0009093EB001092EC0092E39093ED00109212
:102C00003C0298E09093F00082FF22C093E0909302
:102C1000E9009091F200992319F09AE39093E8006B
:102C200090912D02992341F090912D029150909313
:102C30002D02911101C05D9A90913B02992341F0C0
:102C400090913B02915090933B02911101C0289AC0
:102C500084FF18C08091E2008E7E81608093E20044
:102C60008091E1008F7E8093E10080912E028E7E24
:102C7000806180932E029F918F910F900FBE0F90D5
:102C80001F90189580FFF7CF8091E2008E7E8061C3
:102C90008093E2008091E1008E7E8093E10080913C
:102CA0002E028E7E8160E5CF1F920F920FB60F929B
:102CB0001124CF92DF92EF92FF920F931F932F93E5
:102CC0003F934F935F936F937F938F939F93AF93B4
:102CD000BF93EF93FF93CF93DF93CDB7DEB76C979E
:102CE000DEBFCDBF1092E9008091E80083FF25C0D0
:102CF00068E0CE0145960E94640482EF8093E8006C
:102D00008D8987FF39C09091E80090FFFCCF982F04
:102D1000907609F034C19E894F89588D2F89F88C9F
:102D2000911131C0803861F580912C028093F100BF
:102D30001092F1008EEF8093E8006C960FB6F89435
:102D4000DEBF0FBECDBFDF91CF91FF91EF91BF915D
:102D5000AF919F918F917F916F915F914F913F9133
:102D60002F911F910F91FF90EF90DF90CF900F90D8
:102D70000FBE0F901F9018959EEF9093E800C7CF5D
:102D80001092F100D5CF913059F48111D3CF413059
:102D9000510581F680912C028D7F80932C02CACF41
:102DA000933049F48111C6CF4130510519F6809115
:102DB0002C028260F2CF953041F48091E80080FFD0
:102DC000FCCF20682093E300B5CF963009F0A9C06E
:102DD0000B8D1C8D22E01092E90010922A021092B5
:102DE0002902F2122EC010922802109227020E948D
:102DF00033041F8299E09983FA8291E09E8390EADE
:102E000098879AEF99872091290230912A02275FAB
:102E10003F4F3C832B838D831092E90010922A024E
:102E200010922902109328020093270249E050E0F3
:102E3000BE016F5F7F4F80E00E940D040E9433044B
:102E400079CF10932802009327020E941703DC0118
:102E500012960D911C910115110509F451C1D8016B
:102E6000ED91FC910480F581E02DBE016B5E7F4FFA
:102E7000C8010995009709F03EC1F8010085118548
:102E8000EACFF3E0FF120EC08F89882309F440C017
:102E9000823061F440E86BE084E392E00E94DA0360
:102EA000811148CF81E28093EB0047CF813029F434
:102EB00040E86BE088E292E0F1CF833099F70E941E
:102EC0001703DC011296ED90FC908E010F5F1F4FEF
:102ED0006801E114F10479F0D701ED91FC910680CD
:102EE000F781E02DB801C7010995080F111DF70101
:102EF000E084F184EECFD8011C92F601019000200D
:102F0000E9F73197BF016C197D0940E0C601C6CFD2
:102F100062E172E0FB01449150E080E80E940D0400
:102F200009CF973009F4BECF983021F481E0809327
:102F3000F10000CF993009F0FDCE837009F0B2CFD7
:102F4000E6E3F1E081E031E096E32191222371F0A4
:102F50008093E9003093EB00DF0111972C912093CF
:102F6000EC009093ED008F5F873079F78EE78093C8
:102F7000EA001092EA008F8980933C02DBCE8B8DB1
:102F80009C8D1092E90010922A02109229029093CF
:102F9000280280932702898D811192C08E899D8994
:102FA000913A49F4813209F07DCF47E050E06EE07C
:102FB00071E080E0B3CF913209F074CF833269F4CD
:102FC0008F89988DB0E0A0E080930A0190930B0167
:102FD000A0930C01B0930D01ADCE803269F48091C5
:102FE000E80082FFFCCF67E08EE091E00E9464047D
:102FF0008BEF8093E8009ECE823209F09BCE8F89C2
:1030000080931501EEEFFFE7859194918B3F9C4DE6
:1030100051F1E0E0F8E080910E0190910F01A09154
:103020001001B0911101803B9440A105B105F1F46C
:103030008091150180FD1AC0EE3F8AE0F80789F5FE
:1030400087E797E7918380838091600080932B02CC
:1030500088E19BE00FB6F894A895809360000FBEBE
:103060009093600067CEEEEFFAE0D5CF808191813A
:103070008737974709F05ECEA895809160008861F8
:103080008093600080912B0280936000EE3F2AE0E5
:10309000F20789F08091FE0A9091FF0A9183808364
:1030A00049CE808191818737980751F29093FF0A2A
:1030B0008093FE0AC5CF1092FF0A1092FE0A3ACE04
:1030C0000E941703DC0112960D911C910115110548
:1030D00009F4E8CED801ED91FC910190F081E02D4A
:1030E000BE016B5E7F4FC8010995811123CEF801A7
:1030F00000851185EBCF181619060CF41BCED2CE25
:10310000F1E0FF12BECE66E172E004CF1F920F9293
:103110000FB60F9211242F933F934F935F936F93AA
:103120007F938F939F93AF93BF93EF93FF9389E91F
:1031300092E00E942D05FF91EF91BF91AF919F9179
:103140008F917F916F915F914F913F912F910F9050
:103150000FBE0F901F9018951F920F920FB60F92EF
:1031600011242F938F939F93EF93FF93E091A902E4
:10317000F091AA028081E091AF02F091B00282FD4D
:103180001BC090818091B2028F5F8F732091B30238
:10319000821741F0E091B202F0E0E756FD4F958FC3
:1031A0008093B202FF91EF919F918F912F910F9099
:1031B0000FBE0F901F9018958081F4CF1F920F9231
:1031C0000FB60F9211242F933F938F939F93AF933A
:1031D000BF938091ED019091EE01A091EF01B0912C
:1031E000F0013091EC0123E0230F2D3758F50196C3
:1031F000A11DB11D2093EC018093ED019093EE0190
:10320000A093EF01B093F0018091F1019091F20150
:10321000A091F301B091F4010196A11DB11D80931D
:10322000F1019093F201A093F301B093F401BF91E7
:10323000AF919F918F913F912F910F900FBE0F9063
:103240001F90189526E8230F0296A11DB11DD2CF1D
:103250001F920F920FB60F9211242F933F934F930B
:103260005F936F937F938F939F93AF93BF93EF93EE
:10327000FF93E0910801F09109010995FF91EF9109
:10328000BF91AF919F918F917F916F915F914F917E
:103290003F912F910F900FBE0F901F9018951F9286
:1032A0000F920FB60F9211242F933F934F935F937A
:1032B0006F937F938F939F93AF93BF93EF93FF93FE
:1032C000E0910601F09107010995FF91EF91BF91FF
:1032D000AF919F918F917F916F915F914F913F91AE
:1032E0002F910F900FBE0F901F9018951F920F9265
:1032F0000FB60F9211242F933F934F935F936F93C9
:103300007F938F939F93AF93BF93EF93FF93E0913E
:103310000401F09105010995FF91EF91BF91AF91E3
:103320009F918F917F916F915F914F913F912F91DD
:103330000F900FBE0F901F9018951F920F920FB60F
:103340000F9211242F933F934F935F936F937F932B
:103350008F939F93AF93BF93EF93FF93E0910201FD
:10336000F09103010995FF91EF91BF91AF919F916A
:103370008F917F916F915F914F913F912F910F901E
:103380000FBE0F901F9018951F920F920FB60F92BD
:1033900011242F933F934F935F936F937F938F935A
:1033A0009F93AF93BF93EF93FF93E0910001F09150
:1033B00001010995FF91EF91BF91AF919F918F917D
:1033C0007F916F915F914F913F912F910F900FBE21
:1033D0000F901F901895CF93DF93EDE3F2E01382E7
:1033E000128248EE53E060E070E0448355836683C8
:1033F000778380E491E0918380838FEF9FEF9587BF
:103400008487E9E9F2E0138212824483558366835C
:10341000778382E591E0918380838DEC90E09587BE
:1034200084878CEC90E09787868788EC90E0918B7E
:10343000808B89EC90E0938B828B8AEC90E0958B6B
:10344000848B8EEC90E0978B868B118E128E138E70
:10345000148EADE8B2E084E891E011969C938E93CF
:1034600012961C92129713961C92139714961C9204
:10347000149715961C92A3E9B2E011969C938E9333
:1034800012961C92129713961C92139714961C92E4
:10349000149715961C92A1E9B3E01C921696FC9322
:1034A000EE93159717961C92179718961C921897DB
:1034B0001A96FC93EE931997EEEEF3E091838083D6
:1034C0001282138214821582ECE9F3E013821282D5
:1034D000448355836683778384E691E09183808378
:1034E000B587A48716861786108AC2E4D3E08AE0DF
:1034F00090E09F838E8381E0888749875A876B8716
:103500007C871E861D86188A1F861A8A198A1C8A3D
:103510001B8A1E8A1D8A188E1F8A1A8E198E1C8E6F
:103520001B8E1D8E1E8E1F8E18A21AA219A21BA200
:103530001CA21DA21EA218A61FA210928C031092FC
:103540008E0310928D031092900310928F03EBE67E
:10355000F3E081E2DF011D928A95E9F780E890E0CF
:103560009983888381E890E00E9440249B838A832A
:1035700080E890E00E9440249D838C830E94960600
:1035800060933E0370933F03809340039093410305
:103590000E94960660933A0370933B0380933C032A
:1035A00090933D030E949606609336037093370311
:1035B0008093380390933903DF91CF910895CF938F
:1035C000DF93CDB7DEB764970FB6F894DEBF0FBEBA
:1035D000CDBF789484B5826084BD84B5816084BD9C
:1035E00085B5826085BD85B5816085BD80916E00A1
:1035F000816080936E0010928100809181008260D2
:10360000809381008091810081608093810080910E
:10361000800081608093800080919100826080931F
:103620009100809191008160809391008091900041
:103630008160809390008091C10084608093C1007C
:103640008091C10082608093C1008091C10081603F
:103650008093C1008091C30081608093C3008091FA
:10366000C00082608093C0008091C200816080931E
:10367000C20080917A00846080937A0080917A0001
:10368000826080937A0080917A00816080937A00D2
:1036900080917A00806880937A0010923C021092A8
:1036A0002C0210922E028091D70081608093D70067
:1036B00080EA8093D80089B5806189BD89B5826030
:1036C00089BD09B400FEFDCF61E070E080E090E0CC
:1036D0000E94DF058091D8008F7C80618093D800A4
:1036E0008091E000807F8093E0008091E1008E7EF9
:1036F0008093E1008DE08093E200559A209AEAE7FA
:10370000F2E02491EBE5F2E08491882399F090E0D7
:10371000880F991FFC01EA55FE4FA591B491FC0159
:10372000E05CFD4F859194918FB7F894EC91E22B7A
:10373000EC938FBFE0919A03F0919B03A089B1892C
:1037400082E08C93A485B5851C92A685B78587E019
:103750008C93108EA489B58986E08C93A289B38955
:103760008C9180618C93A289B3898C9188608C93B1
:10377000A289B3898C9180688C930288F389E02DAB
:1037800080818F7D8083809198038111B9C081E011
:103790008093980381E993E00E94580B68EE73E0F0
:1037A00080E090E00E94DF0580919603909197035E
:1037B000DC01ED91FC910084F185E02D099518164E
:1037C000190644F3FF24F39462E3E62E85E0EBE26E
:1037D000F1E0DE01199601900D928A95E1F7F092E1
:1037E000990345E050E0BE01675F7F4F81E993E0B8
:1037F0000E945C0E8091960390919703DC01ED91FD
:10380000FC910190F081E02D63E009956AEF70E092
:1038100080E090E00E94DF0562EC71E08091960309
:10382000909197030E948B046AEF70E080E090E033
:103830000E94DF0560EC71E0809196039091970300
:103840000E948B0464EF71E080E090E00E94DF054D
:1038500064EB71E080919603909197030E948B0432
:1038600064EF71E080E090E00E94DF0581E993E081
:103870000E94580B85E0E0E3F1E0DE011196019033
:103880000D928A95E1F7E092990304E010E09E0121
:10389000215F3F4F45E050E0BE016F5F7F4F81E900
:1038A00093E00E94720D8F3F980739F468EE73E041
:1038B00080E090E00E94DF0589CF2F852111FFCFA6
:1038C000049709F0D4C228892053330B44E6429F61
:1038D000C001439F900D11242989EAE02E9F800D9D
:1038E000911D1124805E91402A892053330B820F51
:1038F000931F909393038093920382E380939903A1
:103900008091510390915203009711F00E94DC24A2
:103910008AEB91E00E9422269093520380935103F8
:103920008BE597E090935403809353038CE993E0E5
:103930009093500380934F038091420390914303EF
:103940002091440330914503409146035091470331
:1039500061E070E070936C0360936B0310926D03F1
:1039600010926E0310926F03109270031092710305
:10397000509377034093760390937303809372037D
:1039800030937903209378039093750380937403A5
:1039900010927B0310927A0310927D0310927C03A5
:1039A00010927F0310927E03109281031092800385
:1039B00010928303109282038FE593E09093850326
:1039C0008093840385E693E0909387038093860336
:1039D00088EF96E0909389038093880388E197E0CD
:1039E00090938B0380938A0340E050E0BA018FE507
:1039F00093E00E94F806E0918803F091890340E08B
:103A000050E0BA01809186039091870309958DE576
:103A100093E090937F0380937E0385EE9AE09093EA
:103A200081038093800381E794E0909383038093E4
:103A3000820387E593E090937D0380937C0382EB80
:103A400093E190937B0380937A030E94DD105BEFF8
:103A5000C52E51E0D52ED6011D921D921D921D92AC
:103A60006D01B3E2CB16B2E0DB06A9F782EA96E07D
:103A70009093030180930201809169008C60809390
:103A80006900E99A8E010F5F1F4F34EC232E31E05D
:103A9000332E43EF842E99249A9420E0A22E20E026
:103AA000B22E0E945C02882309F48FC080914F03DC
:103AB00090915003DC01ED91FC910084F185E02DA3
:103AC00009957C01892B01F140914B0350914C03E6
:103AD00060914D0370914E03E0918803F09189034A
:103AE000809186039091870309951A82198250E08C
:103AF00040E0B701C8010E94B008009709F0C3C1B7
:103B00001092900310928F0340914B0350914C03FD
:103B100060914D0370914E03E0918803F091890309
:103B20008091860390918703099580916D03909110
:103B30006E03A0916F03B0917003892B8A2B8B2B9E
:103B400009F43FC0E0918A03F0918B0380918403D4
:103B500090918503099516161706180619068CF11B
:103B600080917103811186C160917203709173031A
:103B7000E0907603F0907703FA82E9826E0D7F1D64
:103B80006E157F0509F47DC120ECF7012083898142
:103B90009A8101969A83898320E030E0A901C801C7
:103BA0000E943907009709F06EC189819A818E19A8
:103BB0009F090E948201009709F065C131E03093AE
:103BC00071031092900310928F030E945C02811186
:103BD00002C00E94DD108091230290912402209166
:103BE0002502309126022817390709F498C09093CE
:103BF0002602809325029BEFE92E91E0F92E412CBD
:103C0000512C3201D7016D917D918D919D917D0156
:103C10000E943B229B01AC01C301B2010E941B2305
:103C20002B013C01CE14DF0469F720E030E040EACC
:103C300050E40E9487239B01AC0160E070E68AE6B5
:103C400097E40E9487232B013C016BEC71E0CE01CD
:103C500009960E94731363EE71E0C8010E9473130A
:103C6000B301A201C8010E94F614B801CE01099661
:103C70000E94381062ED71E0CE0109960E94801416
:103C800063EE71E0C8010E948014B301A201C80173
:103C90000E94F61441E050E062EE71E0C8010E941B
:103CA000B6144091F7015091F8016091F9017091BB
:103CB000FA01C8010E942715B801CE0109960E9499
:103CC000381068ED71E0CE0109960E94801463EE11
:103CD00071E0C8010E9480144091F7015091F801F1
:103CE0006091F9017091FA01C8010E942715B8018D
:103CF000CE0109960E94381081E00E9470026AE0AD
:103D000070E080E090E00E94DF0580E00E94700299
:103D1000C8010E944613CE0109960E9446130E94D4
:103D200096064090360350903703609038037090A9
:103D300039036419750986099709693E734081053D
:103D4000910508F488C00E9496066093360370932C
:103D5000370380933803909339038AE0E82EF12CDF
:103D6000412C512C3201F101849120917B00982F3C
:103D7000990F990F90722F7D922B90937B008770F3
:103D8000806480937C0080917A00806480937A00C4
:103D900080917A0086FDFCCF909178008091790027
:103DA000892798278927092E000CAA0BBB0B480EE0
:103DB000591E6A1E7B1E65E070E080E090E00E9464
:103DC000DF05F1E0EF1AF10871F6C301B2012AE054
:103DD00030E040E050E00E941B2429013093F601BE
:103DE0002093F50164EE71E0CE010F960E947313EB
:103DF00063EE71E0CE0109960E9473134AE0B801A8
:103E0000C2010E949E1FF80101900020E9F731973E
:103E1000AF01401B510BB801CE0109960E94B614A8
:103E2000BE01675F7F4FCE010F960E94381081E080
:103E30000E9470026AE070E080E090E00E94DF057E
:103E400080E00E947002CE0109960E944613CE01C6
:103E50000F960E944613A114B10409F422CE0E94C9
:103E60001905882309F41DCE0E94000016CE84E6B1
:103E700090E03FCD9092900380928F030E944F027A
:103E8000A4CE8FEF9FEF9093900380938F03F6CF94
:103E9000E0915503F09156033097F1F087819085BA
:103EA000892B21F0818592850E94DC24E0915503C5
:103EB000F091560380819181892B21F08281938139
:103EC0000E94DC2480915503909156030E94DC24CB
:103ED0001092560310925503809151039091520312
:103EE000009711F00E94DC248091440390914503D7
:103EF0000E94DC2480914603909147030C94DC24BB
:103F0000EF920F931F93CF93DF93E80134E047FDC7
:103F100034E1042E000C550B57FF03C05195419519
:103F20005109E32E022F242FAE010E94F41FCE016F
:103F3000DF91CF911F910F91EF900895BB274A30E9
:103F400031F4992322F4BDE2909581959F4F0C9412
:103F5000DB1FBB272A3051F4992342F4BDE2909530
:103F60008095709561957F4F8F4F9F4F0C94B91F2F
:103F7000BB27FA01A62F6217710581059105330B46
:103F800030FB66F0AA27660F771F881F991FAA1FAC
:103F9000A21710F0A21B63953850A9F7A05DAA33B1
:103FA00008F0A95DA19336F7B111B1931082CA014F
:103FB0000C942B22BB27FB015527AA27880F991F9A
:103FC000AA1FA41710F0A41B83955051B9F7A05D48
:103FD000AA3308F0A95DA193009779F7B111B193C5
:103FE0001192CB010C942B22A9E0B0E0EAEFFFE1A3
:103FF0000C94DA226A01F22EB02E102FFBE3AF2EC2
:10400000A01608F41BE31F5F012F27E0AE014F5FEE
:104010005F4F0E945321BC018981982F9970913084
:1040200009F43FC09BE2E1FC04C09E2D9170E0FCCE
:104030003AC05E2D5071E82FE87083FF46C084E0DF
:10404000911101C083E0EF2DE81B8F1508F0E0E02F
:10405000D6018E2F20E2552351F1992329F0D60164
:104060009C93C60101966C0196012D5F3F4FE2FEC5
:1040700024C08EE4D6018C9391E411969C93119701
:1040800012968C93D9018E2F90E281111BC0E20F02
:10409000F32FF11D10828EEF9FEF2996ECE00C9428
:1040A000F6229DE2C6CF90E2C4CF2D9381508111BC
:1040B000FCCFCE0ED11CE0E0D0CF8EE6D6018C93A3
:1040C00091E6DBCF9D938150E0CF482F447082FF73
:1040D0003DC084E0911101C083E08F1510F4EF2DF5
:1040E000E81BD6018E2F20E2552309F1992329F0F0
:1040F000D6019C93C60101966C0196012D5F3F4F3E
:10410000E2FE1BC089E4D6018C938EE411968C9359
:10411000119786E412968C93D9018E2F90E2882312
:1041200009F4B5CF9D938150FACF2D938150811121
:10413000FCCFCE0ED11CE0E0D9CF89E6D6018C931E
:104140008EE611968C93119786E6E4CF9B0177FF5C
:1041500002C030E020E0A1E0B0E0911102C0B0E088
:10416000A0E0F9013196AE0FBF1F8B2C912CBB2024
:1041700009F461C05401EFEFAE1ABE0AAA0DBB1DCF
:10418000FA161B0619F014F04F2D4A1B511188C066
:10419000E3FC59C07601A42FB0E2A1114FC0C40EB8
:1041A000D11C992309F45BC040E0D6011196F601B9
:1041B00090836D01552309F448C0012F060F9A81A1
:1041C000582F507184FF03C0913309F40150101629
:1041D0000CF047C0093008F008E0EEE2FE2E5B016B
:1041E000A01AB10885019194819491082F3F32075C
:1041F00029F4D601FC92F60131966F01621773071C
:1042000094F1021713077CF5DB01A21BB30BAA2460
:10421000A394B12CAC0EBD1EAA0DBB1D11968C91A2
:1042200021503109D601119628153905F4F0F6010F
:1042300080836D01DBCFB12CA12CA0CFF701B1930E
:104240007F01A150AACF9111B0CFD601942F50E396
:1042500002C05D9391509111FCCFC40ED11C40E07F
:10426000ACCF01E0BACF80E3DBCF6217730731F444
:10427000963388F4953311F4552369F0F601808361
:10428000FD01842F90E2811108C0A40FB11D1C9282
:1042900090E080E002CF81E3F1CF91938150F3CFA2
:1042A000911183CF8ACF283008F027E03327DA0135
:1042B000990F311D87FD916000966105710539F4F4
:1042C00032602E5F3D9330E32A95E1F708959F3FDA
:1042D00030F080387105610509F03C5F3C5F3D932B
:1042E000913008F08068911DDF93CF931F930F9357
:1042F000FF92EF92192F987F9695E92F96959695B4
:10430000E90FFF27EA5FFE4F99273327EE24FF24AA
:10431000A701E70105900894079428F4360FE71EDB
:10432000F81E491F511D660F771F881F991F06949D
:10433000A1F70590079428F4E70EF81E491F561FB1
:10434000C11D770F881F991F661F0694A1F705905E
:10435000079428F4F80E491F561FC71FD11D880F58
:10436000991F661F771F0694A1F70590079420F404
:10437000490F561FC71FD81F990F661F771F881F29
:104380000694A9F784911095177041F0D695C795BA
:1043900057954795F794E7941A95C1F7ECEAF0E042
:1043A00068941590159135916591959105907FE2EE
:1043B0007395E118F10A430B560BC90BD009C0F7EE
:1043C000E10CF11E431F561FC91FD01D7EF4703330
:1043D00011F48A95E6CFE894015030F0080F0AF402
:1043E0000027021708F4202F2395022F7A3328F094
:1043F00079E37D932A95E9F710C07D932A9589F694
:10440000069497956795379517951794E118F10AD3
:10441000430B560BC90BD00998F023957E917395E9
:104420007A3308F070E37C932013B8F77E917061C3
:104430007D9330F0839571E37D9370E32A95E1F7E6
:104440001124EF90FF900F911F91CF91DF91992749
:1044500087FD90950895DC01FC01672F719177230A
:10446000E1F7329704C07C916D9370836291AE172F
:10447000BF07C8F30895E89409C097FB3EF49095F0
:104480008095709561957F4F8F4F9F4F9923A9F02D
:10449000F92F96E9BB279395F695879577956795BC
:1044A000B795F111F8CFFAF4BB0F11F460FF1BC000
:1044B0006F5F7F4F8F4F9F4F16C0882311F096E993
:1044C00011C0772321F09EE8872F762F05C0662341
:1044D00071F096E8862F70E060E02AF09A95660FFA
:1044E000771F881FDAF7880F9695879597F90895B3
:1044F00097F99F6780E870E060E008959FEF80EC97
:10450000089500240A941616170618060906089539
:1045100000240A9412161306140605060895092E9F
:104520000394000C11F4882352F0BB0F40F4BF2B0E
:1045300011F460FF04C06F5F7F4F8F4F9F4F08954E
:1045400057FD9058440F551F59F05F3F71F0479544
:10455000880F97FB991F61F09F3F79F08795089529
:10456000121613061406551FF2CF4695F1DF08C048
:10457000161617061806991FF1CF86957105610565
:1045800008940895E894BB2766277727CB0197F90D
:1045900008950E940B23A59F900DB49F900DA49F9A
:1045A000800D911D112408952F923F924F925F929A
:1045B0006F927F928F929F92AF92BF92CF92DF9233
:1045C000EF92FF920F931F93CF93DF93CDB7DEB798
:1045D000CA1BDB0B0FB6F894DEBF0FBECDBF09942C
:1045E0002A88398848885F846E847D848C849B8483
:1045F000AA84B984C884DF80EE80FD800C811B8191
:10460000AA81B981CE0FD11D0FB6F894DEBF0FBEBF
:10461000CDBFED010895A29FB001B39FC001A39F3C
:10462000700D811D1124911DB29F700D811D1124EB
:10463000911D08955058BB27AA270E9432230C943D
:104640008F220E94812238F00E94882220F039F4C3
:104650009F3F19F426F40C947E220EF4E095E7FBBC
:104660000C947822E92F0E94A02258F3BA1762070F
:1046700073078407950720F079F4A6F50C94C222FD
:104680000EF4E0950B2EBA2FA02D0B01B90190016D
:104690000C01CA01A0011124FF27591B99F0593FB1
:1046A00050F4503E68F11A16F040A22F232F342FF9
:1046B0004427585FF3CF469537952795A795F04047
:1046C0005395C9F77EF41F16BA0B620B730B840B5C
:1046D000BAF09150A1F0FF0FBB1F661F771F881F14
:1046E000C2F70EC0BA0F621F731F841F48F487956C
:1046F00077956795B795F7959E3F08F0B0CF93955E
:10470000880F08F09927EE0F9795879508950E94D6
:104710009B230C948F220E94882258F00E948122B1
:1047200040F029F45F3F29F00C94782251110C9449
:10473000C3220C947E220E94A02268F39923B1F335
:10474000552391F3951B550BBB27AA2762177307B7
:10475000840738F09F5F5F4F220F331F441FAA1F4B
:10476000A9F335D00E2E3AF0E0E832D09150504007
:10477000E695001CCAF72BD0FE2F29D0660F771FB5
:10478000881FBB1F261737074807AB07B0E809F09B
:10479000BB0B802DBF01FF2793585F4F3AF09E3F20
:1047A000510578F00C9478220C94C3225F3FE4F317
:1047B000983ED4F3869577956795B795F7959F5F63
:1047C000C9F7880F911D9695879597F90895E1E0AF
:1047D000660F771F881FBB1F621773078407BA070E
:1047E00020F0621B730B840BBA0BEE1F88F7E09569
:1047F0000895A1E21A2EAA1BBB1BFD010DC0AA1F22
:10480000BB1FEE1FFF1FA217B307E407F50720F039
:10481000A21BB30BE40BF50B661F771F881F991FB4
:104820001A9469F760957095809590959B01AC01FD
:10483000BD01CF010895052E97FB1EF400940E9440
:10484000322457FD07D00E94F92307FC03D04EF411
:104850000C94322450954095309521953F4F4F4F01
:104860005F4F089590958095709561957F4F8F4F1C
:104870009F4F0895EE0FFF1F0590F491E02D0994CE
:104880000F931F93CF93DF938230910510F482E052
:1048900090E0E091F603F091F70330E020E0B0E023
:1048A000A0E0309799F42115310509F44AC0281B7E
:1048B000390B24303105D8F58A819B81611571054A
:1048C00089F1FB0193838283FE0111C040815181F4
:1048D0000281138148175907E0F04817590799F4E6
:1048E000109761F012960C93129713961C933296C0
:1048F000CF01DF91CF911F910F9108950093F6039F
:104900001093F703F4CF2115310551F042175307E7
:1049100038F0A901DB019A01BD01DF01F801C1CF27
:10492000EF01F9CF9093F7038093F603CDCFFE010B
:10493000E20FF31F81939193225031093983288329
:10494000D7CF2091F4033091F503232B41F420912C
:104950001801309119013093F5032093F40320914D
:104960001601309117012115310541F42DB73EB7DD
:1049700040911A0150911B01241B350BE091F40367
:10498000F091F503E217F307A0F42E1B3F0B281755
:10499000390778F0AC014E5F5F4F2417350748F0B8
:1049A0004E0F5F1F5093F5034093F403819391934F
:1049B0009FCFF0E0E0E09CCFCF93DF930097E9F04A
:1049C000FC01329713821282A091F603B091F70393
:1049D000ED0130E020E01097A1F420813181820FB9
:1049E000931F2091F4033091F5032817390709F03C
:1049F00061C0F093F503E093F403DF91CF91089544
:104A0000EA01CE17DF07E8F54A815B819E01411577
:104A10005105B1F7E901FB83EA8349915991C40F2C
:104A2000D51FEC17FD0761F4808191810296840FF8
:104A3000951FE90199838883828193819B838A836F
:104A4000F0E0E0E012968D919C9113970097B9F5F4
:104A50002D913C911197CD010296820F931F2091C9
:104A6000F4033091F5032817390739F6309751F5DB
:104A70001092F7031092F603B093F503A093F4039A
:104A8000BCCFD383C28340815181840F951FC81747
:104A9000D90761F44E5F5F4F88819981480F591F94
:104AA000518340838A819B819383828321153105C1
:104AB00009F0B0CFF093F703E093F6039ECFFD012A
:104AC000DC01C0CF13821282D7CFB0E0A0E0EBE6CA
:104AD000F5E20C94D6228C01009751F4CB010E9490
:104AE00040248C01C801CDB7DEB7E0E10C94F2227E
:104AF000FC01E60FF71F9C0122503109E217F30772
:104B000008F49DC0D901CD91DC911197C617D70744
:104B100098F0C530D10530F3CE010497861797077A
:104B200008F3C61BD70B2297C193D1936D937C9347
:104B3000CF010E94DC24D6CF5B01AC1ABD0A4C0128
:104B40008C0E9D1EA091F603B091F703512C412CC1
:104B5000F12CE12C109731F58091F4039091F5033D
:104B60008815990509F05CC04616570608F058C02C
:104B70008091160190911701009741F48DB79EB76F
:104B800040911A0150911B01841B950BE817F907FE
:104B900008F055C0F093F503E093F403F901718335
:104BA0006083A0CF8D919C91119712966C90129773
:104BB00013967C901397A815B90559F56C0142E03E
:104BC000C40ED11CCA14DB0420F1AC014A195B09E4
:104BD000DA011296159780F06282738251834083C6
:104BE000D9016D937C93E114F10471F0D701139610
:104BF000FC93EE93129776CF22968C0F9D1FF901AE
:104C000091838083F301EFCFF093F703E093F603F2
:104C100069CF4816590608F42C017D01D3019ACFBB
:104C2000CB010E9440247C01009749F0AE01B801FD
:104C30000E943C26C8010E94DC24870153CF10E06B
:104C400000E050CF0F931F93CF93DF938C01FC01B3
:104C500001900020E9F7CF01801B910B0E944024B6
:104C6000EC01009719F0B8010E944526CE01DF91B2
:104C7000CF911F910F910895FB01DC0102C00190BB
:104C80000D9241505040D8F70895FB01DC0101908E
:104C90000D920020E1F7089511E0C7E5D1E004C0CE
:104CA000FE010E943A242196C835D107C9F7F8942D
:024CB000FFCF34
:104CB20038073807380738073807FFFFFFFF00E1DA
:104CC2000000000000000000F80380000000000067
:104CD2003C000100000000000000005858585858DD
:104CE200585831303000C1808100000000000000BF
:104CF2002B0311064C034103920350036E03000081
:104D020000004E05AF04DC049A050D05EB04FF0418
:104D120000000000730E3C0D550B480B520E3A0E6C
:104D2200F40D83156E0F070E950E870D520B490B6E
:104D320000000000120F61726475696E6F2D797543
:104D42006E2D76697A696E76697A006563663932A4
:104D520039666500663635626465313964386534B2
:104D620036643637004D5154540062726F6B65726F
:104D72002E7368696674722E696F002F70756C737A
:104D820065002F70756C73652F696E74657276613C
:0A4D92006C002C002F677372000004
:00000001FF
